{
  "contractName": "HoneyBees",
  "abi": [
    {
      "inputs": [
        {
          "internalType": "address",
          "name": "honeyTokenAddress",
          "type": "address"
        },
        {
          "internalType": "address",
          "name": "DAOAgentAddress",
          "type": "address"
        }
      ],
      "stateMutability": "nonpayable",
      "type": "constructor"
    },
    {
      "anonymous": false,
      "inputs": [
        {
          "indexed": true,
          "internalType": "address",
          "name": "owner",
          "type": "address"
        },
        {
          "indexed": true,
          "internalType": "address",
          "name": "spender",
          "type": "address"
        },
        {
          "indexed": false,
          "internalType": "uint256",
          "name": "value",
          "type": "uint256"
        }
      ],
      "name": "Approval",
      "type": "event"
    },
    {
      "anonymous": false,
      "inputs": [
        {
          "indexed": true,
          "internalType": "bytes32",
          "name": "role",
          "type": "bytes32"
        },
        {
          "indexed": true,
          "internalType": "bytes32",
          "name": "previousAdminRole",
          "type": "bytes32"
        },
        {
          "indexed": true,
          "internalType": "bytes32",
          "name": "newAdminRole",
          "type": "bytes32"
        }
      ],
      "name": "RoleAdminChanged",
      "type": "event"
    },
    {
      "anonymous": false,
      "inputs": [
        {
          "indexed": true,
          "internalType": "bytes32",
          "name": "role",
          "type": "bytes32"
        },
        {
          "indexed": true,
          "internalType": "address",
          "name": "account",
          "type": "address"
        },
        {
          "indexed": true,
          "internalType": "address",
          "name": "sender",
          "type": "address"
        }
      ],
      "name": "RoleGranted",
      "type": "event"
    },
    {
      "anonymous": false,
      "inputs": [
        {
          "indexed": true,
          "internalType": "bytes32",
          "name": "role",
          "type": "bytes32"
        },
        {
          "indexed": true,
          "internalType": "address",
          "name": "account",
          "type": "address"
        },
        {
          "indexed": true,
          "internalType": "address",
          "name": "sender",
          "type": "address"
        }
      ],
      "name": "RoleRevoked",
      "type": "event"
    },
    {
      "anonymous": false,
      "inputs": [
        {
          "indexed": false,
          "internalType": "uint256",
          "name": "id",
          "type": "uint256"
        }
      ],
      "name": "Snapshot",
      "type": "event"
    },
    {
      "anonymous": false,
      "inputs": [
        {
          "indexed": true,
          "internalType": "address",
          "name": "from",
          "type": "address"
        },
        {
          "indexed": true,
          "internalType": "address",
          "name": "to",
          "type": "address"
        },
        {
          "indexed": false,
          "internalType": "uint256",
          "name": "value",
          "type": "uint256"
        }
      ],
      "name": "Transfer",
      "type": "event"
    },
    {
      "inputs": [],
      "name": "DEFAULT_ADMIN_ROLE",
      "outputs": [
        {
          "internalType": "bytes32",
          "name": "",
          "type": "bytes32"
        }
      ],
      "stateMutability": "view",
      "type": "function",
      "constant": true
    },
    {
      "inputs": [],
      "name": "SNAPSHOT_ROLE",
      "outputs": [
        {
          "internalType": "bytes32",
          "name": "",
          "type": "bytes32"
        }
      ],
      "stateMutability": "view",
      "type": "function",
      "constant": true
    },
    {
      "inputs": [
        {
          "internalType": "address",
          "name": "owner",
          "type": "address"
        },
        {
          "internalType": "address",
          "name": "spender",
          "type": "address"
        }
      ],
      "name": "allowance",
      "outputs": [
        {
          "internalType": "uint256",
          "name": "",
          "type": "uint256"
        }
      ],
      "stateMutability": "view",
      "type": "function",
      "constant": true
    },
    {
      "inputs": [
        {
          "internalType": "address",
          "name": "spender",
          "type": "address"
        },
        {
          "internalType": "uint256",
          "name": "amount",
          "type": "uint256"
        }
      ],
      "name": "approve",
      "outputs": [
        {
          "internalType": "bool",
          "name": "",
          "type": "bool"
        }
      ],
      "stateMutability": "nonpayable",
      "type": "function"
    },
    {
      "inputs": [
        {
          "internalType": "address",
          "name": "account",
          "type": "address"
        }
      ],
      "name": "balanceOf",
      "outputs": [
        {
          "internalType": "uint256",
          "name": "",
          "type": "uint256"
        }
      ],
      "stateMutability": "view",
      "type": "function",
      "constant": true
    },
    {
      "inputs": [
        {
          "internalType": "address",
          "name": "account",
          "type": "address"
        },
        {
          "internalType": "uint256",
          "name": "snapshotId",
          "type": "uint256"
        }
      ],
      "name": "balanceOfAt",
      "outputs": [
        {
          "internalType": "uint256",
          "name": "",
          "type": "uint256"
        }
      ],
      "stateMutability": "view",
      "type": "function",
      "constant": true
    },
    {
      "inputs": [
        {
          "internalType": "address",
          "name": "spender",
          "type": "address"
        },
        {
          "internalType": "uint256",
          "name": "subtractedValue",
          "type": "uint256"
        }
      ],
      "name": "decreaseAllowance",
      "outputs": [
        {
          "internalType": "bool",
          "name": "",
          "type": "bool"
        }
      ],
      "stateMutability": "nonpayable",
      "type": "function"
    },
    {
      "inputs": [
        {
          "internalType": "bytes32",
          "name": "role",
          "type": "bytes32"
        }
      ],
      "name": "getRoleAdmin",
      "outputs": [
        {
          "internalType": "bytes32",
          "name": "",
          "type": "bytes32"
        }
      ],
      "stateMutability": "view",
      "type": "function",
      "constant": true
    },
    {
      "inputs": [
        {
          "internalType": "bytes32",
          "name": "role",
          "type": "bytes32"
        },
        {
          "internalType": "address",
          "name": "account",
          "type": "address"
        }
      ],
      "name": "grantRole",
      "outputs": [],
      "stateMutability": "nonpayable",
      "type": "function"
    },
    {
      "inputs": [
        {
          "internalType": "bytes32",
          "name": "role",
          "type": "bytes32"
        },
        {
          "internalType": "address",
          "name": "account",
          "type": "address"
        }
      ],
      "name": "hasRole",
      "outputs": [
        {
          "internalType": "bool",
          "name": "",
          "type": "bool"
        }
      ],
      "stateMutability": "view",
      "type": "function",
      "constant": true
    },
    {
      "inputs": [],
      "name": "honeyAddress",
      "outputs": [
        {
          "internalType": "contract ERC20",
          "name": "",
          "type": "address"
        }
      ],
      "stateMutability": "view",
      "type": "function",
      "constant": true
    },
    {
      "inputs": [],
      "name": "honeyDAOAgentAddress",
      "outputs": [
        {
          "internalType": "address",
          "name": "",
          "type": "address"
        }
      ],
      "stateMutability": "view",
      "type": "function",
      "constant": true
    },
    {
      "inputs": [
        {
          "internalType": "address",
          "name": "spender",
          "type": "address"
        },
        {
          "internalType": "uint256",
          "name": "addedValue",
          "type": "uint256"
        }
      ],
      "name": "increaseAllowance",
      "outputs": [
        {
          "internalType": "bool",
          "name": "",
          "type": "bool"
        }
      ],
      "stateMutability": "nonpayable",
      "type": "function"
    },
    {
      "inputs": [],
      "name": "name",
      "outputs": [
        {
          "internalType": "string",
          "name": "",
          "type": "string"
        }
      ],
      "stateMutability": "view",
      "type": "function",
      "constant": true
    },
    {
      "inputs": [
        {
          "internalType": "bytes32",
          "name": "role",
          "type": "bytes32"
        },
        {
          "internalType": "address",
          "name": "account",
          "type": "address"
        }
      ],
      "name": "renounceRole",
      "outputs": [],
      "stateMutability": "nonpayable",
      "type": "function"
    },
    {
      "inputs": [
        {
          "internalType": "bytes32",
          "name": "role",
          "type": "bytes32"
        },
        {
          "internalType": "address",
          "name": "account",
          "type": "address"
        }
      ],
      "name": "revokeRole",
      "outputs": [],
      "stateMutability": "nonpayable",
      "type": "function"
    },
    {
      "inputs": [
        {
          "internalType": "bytes4",
          "name": "interfaceId",
          "type": "bytes4"
        }
      ],
      "name": "supportsInterface",
      "outputs": [
        {
          "internalType": "bool",
          "name": "",
          "type": "bool"
        }
      ],
      "stateMutability": "view",
      "type": "function",
      "constant": true
    },
    {
      "inputs": [],
      "name": "symbol",
      "outputs": [
        {
          "internalType": "string",
          "name": "",
          "type": "string"
        }
      ],
      "stateMutability": "view",
      "type": "function",
      "constant": true
    },
    {
      "inputs": [],
      "name": "totalSupply",
      "outputs": [
        {
          "internalType": "uint256",
          "name": "",
          "type": "uint256"
        }
      ],
      "stateMutability": "view",
      "type": "function",
      "constant": true
    },
    {
      "inputs": [
        {
          "internalType": "uint256",
          "name": "snapshotId",
          "type": "uint256"
        }
      ],
      "name": "totalSupplyAt",
      "outputs": [
        {
          "internalType": "uint256",
          "name": "",
          "type": "uint256"
        }
      ],
      "stateMutability": "view",
      "type": "function",
      "constant": true
    },
    {
      "inputs": [
        {
          "internalType": "address",
          "name": "sender",
          "type": "address"
        },
        {
          "internalType": "address",
          "name": "recipient",
          "type": "address"
        },
        {
          "internalType": "uint256",
          "name": "amount",
          "type": "uint256"
        }
      ],
      "name": "transferFrom",
      "outputs": [
        {
          "internalType": "bool",
          "name": "",
          "type": "bool"
        }
      ],
      "stateMutability": "nonpayable",
      "type": "function"
    },
    {
      "inputs": [],
      "name": "decimals",
      "outputs": [
        {
          "internalType": "uint8",
          "name": "",
          "type": "uint8"
        }
      ],
      "stateMutability": "view",
      "type": "function",
      "constant": true
    },
    {
      "inputs": [
        {
          "internalType": "uint256",
          "name": "amountOfHoney",
          "type": "uint256"
        }
      ],
      "name": "attractBees",
      "outputs": [
        {
          "internalType": "bool",
          "name": "",
          "type": "bool"
        }
      ],
      "stateMutability": "nonpayable",
      "type": "function"
    },
    {
      "inputs": [],
      "name": "attractBees",
      "outputs": [
        {
          "internalType": "bool",
          "name": "",
          "type": "bool"
        }
      ],
      "stateMutability": "nonpayable",
      "type": "function"
    },
    {
      "inputs": [
        {
          "internalType": "uint256",
          "name": "amountOfHoney",
          "type": "uint256"
        },
        {
          "internalType": "address",
          "name": "sendTo",
          "type": "address"
        }
      ],
      "name": "attractBees",
      "outputs": [
        {
          "internalType": "bool",
          "name": "",
          "type": "bool"
        }
      ],
      "stateMutability": "nonpayable",
      "type": "function"
    },
    {
      "inputs": [],
      "name": "collectHoney",
      "outputs": [
        {
          "internalType": "bool",
          "name": "",
          "type": "bool"
        }
      ],
      "stateMutability": "nonpayable",
      "type": "function"
    },
    {
      "inputs": [
        {
          "internalType": "uint256",
          "name": "numberOfBees",
          "type": "uint256"
        },
        {
          "internalType": "address",
          "name": "sendTo",
          "type": "address"
        }
      ],
      "name": "collectHoney",
      "outputs": [
        {
          "internalType": "bool",
          "name": "",
          "type": "bool"
        }
      ],
      "stateMutability": "nonpayable",
      "type": "function"
    },
    {
      "inputs": [
        {
          "internalType": "uint256",
          "name": "numberOfBees",
          "type": "uint256"
        }
      ],
      "name": "collectHoney",
      "outputs": [
        {
          "internalType": "bool",
          "name": "",
          "type": "bool"
        }
      ],
      "stateMutability": "nonpayable",
      "type": "function"
    },
    {
      "inputs": [
        {
          "internalType": "address",
          "name": "recipient",
          "type": "address"
        },
        {
          "internalType": "uint256",
          "name": "amount",
          "type": "uint256"
        }
      ],
      "name": "transfer",
      "outputs": [
        {
          "internalType": "bool",
          "name": "",
          "type": "bool"
        }
      ],
      "stateMutability": "nonpayable",
      "type": "function"
    },
    {
      "inputs": [],
      "name": "snapshot",
      "outputs": [],
      "stateMutability": "nonpayable",
      "type": "function"
    }
  ],
  "bytecode": "0x60806040523480156200001157600080fd5b50604051620053933803806200539383398181016040528101906200003791906200042e565b6040518060400160405280600981526020017f486f6e65794265657300000000000000000000000000000000000000000000008152506040518060400160405280600481526020017f42454553000000000000000000000000000000000000000000000000000000008152508160039080519060200190620000bb92919062000367565b508060049080519060200190620000d492919062000367565b50505081600a60006101000a81548173ffffffffffffffffffffffffffffffffffffffff021916908373ffffffffffffffffffffffffffffffffffffffff16021790555080600b60006101000a81548173ffffffffffffffffffffffffffffffffffffffff021916908373ffffffffffffffffffffffffffffffffffffffff160217905550620001906000801b600b60009054906101000a900473ffffffffffffffffffffffffffffffffffffffff16620001ec60201b60201c565b620001e47f5fdbd35e8da83ee755d5e62a539e5ed7f47126abede0b8b10f9ea43dc6eed07f600b60009054906101000a900473ffffffffffffffffffffffffffffffffffffffff16620001ec60201b60201c565b505062000522565b620001fe82826200020260201b60201c565b5050565b620002148282620002f460201b60201c565b620002f05760016009600084815260200190815260200160002060000160008373ffffffffffffffffffffffffffffffffffffffff1673ffffffffffffffffffffffffffffffffffffffff16815260200190815260200160002060006101000a81548160ff021916908315150217905550620002956200035f60201b60201c565b73ffffffffffffffffffffffffffffffffffffffff168173ffffffffffffffffffffffffffffffffffffffff16837f2f8788117e7eff1d82e926ec794901d17c78024a50270940304540a733656f0d60405160405180910390a45b5050565b60006009600084815260200190815260200160002060000160008373ffffffffffffffffffffffffffffffffffffffff1673ffffffffffffffffffffffffffffffffffffffff16815260200190815260200160002060009054906101000a900460ff16905092915050565b600033905090565b8280546200037590620004a3565b90600052602060002090601f016020900481019282620003995760008555620003e5565b82601f10620003b457805160ff1916838001178555620003e5565b82800160010185558215620003e5579182015b82811115620003e4578251825591602001919060010190620003c7565b5b509050620003f49190620003f8565b5090565b5b8082111562000413576000816000905550600101620003f9565b5090565b600081519050620004288162000508565b92915050565b600080604083850312156200044257600080fd5b6000620004528582860162000417565b9250506020620004658582860162000417565b9150509250929050565b60006200047c8262000483565b9050919050565b600073ffffffffffffffffffffffffffffffffffffffff82169050919050565b60006002820490506001821680620004bc57607f821691505b60208210811415620004d357620004d2620004d9565b5b50919050565b7f4e487b7100000000000000000000000000000000000000000000000000000000600052602260045260246000fd5b62000513816200046f565b81146200051f57600080fd5b50565b614e6180620005326000396000f3fe608060405234801561001057600080fd5b50600436106101da5760003560e01c80638517b37a11610104578063a9059cbb116100a2578063d547741f11610071578063d547741f146105bd578063d7d7da3e146105d9578063dd62ed3e14610609578063f249961414610639576101da565b8063a9059cbb14610521578063b3d8d07914610551578063bd16d6661461056f578063bd9c79381461058d576101da565b80639711715a116100de5780639711715a14610499578063981b24d0146104a3578063a217fddf146104d3578063a457c2d7146104f1576101da565b80638517b37a1461042d57806391d148541461044b57806395d89b411461047b576101da565b80632f2ff15d1161017c578063395093511161014b578063395093511461037f5780634ee2cd7e146103af5780637028e2cd146103df57806370a08231146103fd576101da565b80632f2ff15d146102f9578063313ce5671461031557806335113ac91461033357806336568abe14610363576101da565b80630bd96a4e116101b85780630bd96a4e1461025d57806318160ddd1461027b57806323b872dd14610299578063248a9ca3146102c9576101da565b806301ffc9a7146101df57806306fdde031461020f578063095ea7b31461022d575b600080fd5b6101f960048036038101906101f49190613e1a565b610669565b6040516102069190614746565b60405180910390f35b6102176106e3565b6040516102249190614797565b60405180910390f35b61024760048036038101906102429190613d50565b610775565b6040516102549190614746565b60405180910390f35b610265610793565b6040516102729190614746565b60405180910390f35b610283610c17565b6040516102909190614a39565b60405180910390f35b6102b360048036038101906102ae9190613d01565b610c21565b6040516102c09190614746565b60405180910390f35b6102e360048036038101906102de9190613db5565b610d22565b6040516102f09190614761565b60405180910390f35b610313600480360381019061030e9190613dde565b610d42565b005b61031d610d6b565b60405161032a9190614a54565b60405180910390f35b61034d60048036038101906103489190613e43565b610d74565b60405161035a9190614746565b60405180910390f35b61037d60048036038101906103789190613dde565b611232565b005b61039960048036038101906103949190613d50565b6112b5565b6040516103a69190614746565b60405180910390f35b6103c960048036038101906103c49190613d50565b611361565b6040516103d69190614a39565b60405180910390f35b6103e76113d1565b6040516103f49190614761565b60405180910390f35b61041760048036038101906104129190613c9c565b6113f5565b6040516104249190614a39565b60405180910390f35b61043561143d565b60405161044291906146cb565b60405180910390f35b61046560048036038101906104609190613dde565b611463565b6040516104729190614746565b60405180910390f35b6104836114ce565b6040516104909190614797565b60405180910390f35b6104a1611560565b005b6104bd60048036038101906104b89190613e43565b61159e565b6040516104ca9190614a39565b60405180910390f35b6104db6115cf565b6040516104e89190614761565b60405180910390f35b61050b60048036038101906105069190613d50565b6115d6565b6040516105189190614746565b60405180910390f35b61053b60048036038101906105369190613d50565b6116ca565b6040516105489190614746565b60405180910390f35b610559611726565b604051610566919061477c565b60405180910390f35b61057761174c565b6040516105849190614746565b60405180910390f35b6105a760048036038101906105a29190613e95565b611c15565b6040516105b49190614746565b60405180910390f35b6105d760048036038101906105d29190613dde565b61200e565b005b6105f360048036038101906105ee9190613e95565b612037565b6040516106009190614746565b60405180910390f35b610623600480360381019061061e9190613cc5565b612454565b6040516106309190614a39565b60405180910390f35b610653600480360381019061064e9190613e43565b6124db565b6040516106609190614746565b60405180910390f35b60007f7965db0b000000000000000000000000000000000000000000000000000000007bffffffffffffffffffffffffffffffffffffffffffffffffffffffff1916827bffffffffffffffffffffffffffffffffffffffffffffffffffffffff191614806106dc57506106db82612975565b5b9050919050565b6060600380546106f290614cb7565b80601f016020809104026020016040519081016040528092919081815260200182805461071e90614cb7565b801561076b5780601f106107405761010080835404028352916020019161076b565b820191906000526020600020905b81548152906001019060200180831161074e57829003601f168201915b5050505050905090565b60006107896107826129df565b84846129e7565b6001905092915050565b6000803073ffffffffffffffffffffffffffffffffffffffff166370a08231336040518263ffffffff1660e01b81526004016107cf91906146cb565b60206040518083038186803b1580156107e757600080fd5b505afa1580156107fb573d6000803e3d6000fd5b505050506040513d601f19601f8201168201806040525081019061081f9190613e6c565b101561082a57600080fd5b60003073ffffffffffffffffffffffffffffffffffffffff166370a08231336040518263ffffffff1660e01b815260040161086591906146cb565b60206040518083038186803b15801561087d57600080fd5b505afa158015610891573d6000803e3d6000fd5b505050506040513d601f19601f820116820180604052508101906108b59190613e6c565b9050600081600a60009054906101000a900473ffffffffffffffffffffffffffffffffffffffff1673ffffffffffffffffffffffffffffffffffffffff166370a08231306040518263ffffffff1660e01b815260040161091591906146cb565b60206040518083038186803b15801561092d57600080fd5b505afa158015610941573d6000803e3d6000fd5b505050506040513d601f19601f820116820180604052508101906109659190613e6c565b61096f9190614b77565b90506000823073ffffffffffffffffffffffffffffffffffffffff166370a08231336040518263ffffffff1660e01b81526004016109ad91906146cb565b60206040518083038186803b1580156109c557600080fd5b505afa1580156109d9573d6000803e3d6000fd5b505050506040513d601f19601f820116820180604052508101906109fd9190613e6c565b610a079190614b77565b9050610a133384612bb2565b803073ffffffffffffffffffffffffffffffffffffffff166370a08231336040518263ffffffff1660e01b8152600401610a4d91906146cb565b60206040518083038186803b158015610a6557600080fd5b505afa158015610a79573d6000803e3d6000fd5b505050506040513d601f19601f82011682018060405250810190610a9d9190613e6c565b14610aa757600080fd5b600a60009054906101000a900473ffffffffffffffffffffffffffffffffffffffff1673ffffffffffffffffffffffffffffffffffffffff1663a9059cbb33856040518363ffffffff1660e01b8152600401610b0492919061471d565b602060405180830381600087803b158015610b1e57600080fd5b505af1158015610b32573d6000803e3d6000fd5b505050506040513d601f19601f82011682018060405250810190610b569190613d8c565b5081600a60009054906101000a900473ffffffffffffffffffffffffffffffffffffffff1673ffffffffffffffffffffffffffffffffffffffff166370a08231306040518263ffffffff1660e01b8152600401610bb391906146cb565b60206040518083038186803b158015610bcb57600080fd5b505afa158015610bdf573d6000803e3d6000fd5b505050506040513d601f19601f82011682018060405250810190610c039190613e6c565b14610c0d57600080fd5b6001935050505090565b6000600254905090565b6000610c2e848484612d86565b6000600160008673ffffffffffffffffffffffffffffffffffffffff1673ffffffffffffffffffffffffffffffffffffffff1681526020019081526020016000206000610c796129df565b73ffffffffffffffffffffffffffffffffffffffff1673ffffffffffffffffffffffffffffffffffffffff16815260200190815260200160002054905082811015610cf9576040517f08c379a0000000000000000000000000000000000000000000000000000000008152600401610cf0906148d9565b60405180910390fd5b610d1685610d056129df565b8584610d119190614b77565b6129e7565b60019150509392505050565b600060096000838152602001908152602001600020600101549050919050565b610d4b82610d22565b610d5c81610d576129df565b613005565b610d6683836130a2565b505050565b6000600c905090565b600081600a60009054906101000a900473ffffffffffffffffffffffffffffffffffffffff1673ffffffffffffffffffffffffffffffffffffffff166370a08231336040518263ffffffff1660e01b8152600401610dd291906146cb565b60206040518083038186803b158015610dea57600080fd5b505afa158015610dfe573d6000803e3d6000fd5b505050506040513d601f19601f82011682018060405250810190610e229190613e6c565b1015610e63576040517f08c379a0000000000000000000000000000000000000000000000000000000008152600401610e5a906148b9565b60405180910390fd5b600082600a60009054906101000a900473ffffffffffffffffffffffffffffffffffffffff1673ffffffffffffffffffffffffffffffffffffffff166370a08231306040518263ffffffff1660e01b8152600401610ec191906146cb565b60206040518083038186803b158015610ed957600080fd5b505afa158015610eed573d6000803e3d6000fd5b505050506040513d601f19601f82011682018060405250810190610f119190613e6c565b610f1b9190614a96565b90506000833073ffffffffffffffffffffffffffffffffffffffff166370a08231336040518263ffffffff1660e01b8152600401610f5991906146cb565b60206040518083038186803b158015610f7157600080fd5b505afa158015610f85573d6000803e3d6000fd5b505050506040513d601f19601f82011682018060405250810190610fa99190613e6c565b610fb39190614a96565b9050600a60009054906101000a900473ffffffffffffffffffffffffffffffffffffffff1673ffffffffffffffffffffffffffffffffffffffff166323b872dd3330876040518463ffffffff1660e01b8152600401611014939291906146e6565b602060405180830381600087803b15801561102e57600080fd5b505af1158015611042573d6000803e3d6000fd5b505050506040513d601f19601f820116820180604052508101906110669190613d8c565b5081600a60009054906101000a900473ffffffffffffffffffffffffffffffffffffffff1673ffffffffffffffffffffffffffffffffffffffff166370a08231306040518263ffffffff1660e01b81526004016110c391906146cb565b60206040518083038186803b1580156110db57600080fd5b505afa1580156110ef573d6000803e3d6000fd5b505050506040513d601f19601f820116820180604052508101906111139190613e6c565b14611153576040517f08c379a000000000000000000000000000000000000000000000000000000000815260040161114a90614959565b60405180910390fd5b61115d3385613183565b803073ffffffffffffffffffffffffffffffffffffffff166370a08231336040518263ffffffff1660e01b815260040161119791906146cb565b60206040518083038186803b1580156111af57600080fd5b505afa1580156111c3573d6000803e3d6000fd5b505050506040513d601f19601f820116820180604052508101906111e79190613e6c565b14611227576040517f08c379a000000000000000000000000000000000000000000000000000000000815260040161121e90614879565b60405180910390fd5b600192505050919050565b61123a6129df565b73ffffffffffffffffffffffffffffffffffffffff168173ffffffffffffffffffffffffffffffffffffffff16146112a7576040517f08c379a000000000000000000000000000000000000000000000000000000000815260040161129e906149f9565b60405180910390fd5b6112b182826132d7565b5050565b60006113576112c26129df565b8484600160006112d06129df565b73ffffffffffffffffffffffffffffffffffffffff1673ffffffffffffffffffffffffffffffffffffffff16815260200190815260200160002060008873ffffffffffffffffffffffffffffffffffffffff1673ffffffffffffffffffffffffffffffffffffffff168152602001908152602001600020546113529190614a96565b6129e7565b6001905092915050565b60008060006113ae84600560008873ffffffffffffffffffffffffffffffffffffffff1673ffffffffffffffffffffffffffffffffffffffff1681526020019081526020016000206133b9565b91509150816113c5576113c0856113f5565b6113c7565b805b9250505092915050565b7f5fdbd35e8da83ee755d5e62a539e5ed7f47126abede0b8b10f9ea43dc6eed07f81565b60008060008373ffffffffffffffffffffffffffffffffffffffff1673ffffffffffffffffffffffffffffffffffffffff168152602001908152602001600020549050919050565b600b60009054906101000a900473ffffffffffffffffffffffffffffffffffffffff1681565b60006009600084815260200190815260200160002060000160008373ffffffffffffffffffffffffffffffffffffffff1673ffffffffffffffffffffffffffffffffffffffff16815260200190815260200160002060009054906101000a900460ff16905092915050565b6060600480546114dd90614cb7565b80601f016020809104026020016040519081016040528092919081815260200182805461150990614cb7565b80156115565780601f1061152b57610100808354040283529160200191611556565b820191906000526020600020905b81548152906001019060200180831161153957829003601f168201915b5050505050905090565b61158a7f5fdbd35e8da83ee755d5e62a539e5ed7f47126abede0b8b10f9ea43dc6eed07f33611463565b61159357600080fd5b61159b6134d7565b50565b60008060006115ae8460066133b9565b91509150816115c4576115bf610c17565b6115c6565b805b92505050919050565b6000801b81565b600080600160006115e56129df565b73ffffffffffffffffffffffffffffffffffffffff1673ffffffffffffffffffffffffffffffffffffffff16815260200190815260200160002060008573ffffffffffffffffffffffffffffffffffffffff1673ffffffffffffffffffffffffffffffffffffffff168152602001908152602001600020549050828110156116a2576040517f08c379a0000000000000000000000000000000000000000000000000000000008152600401611699906149d9565b60405180910390fd5b6116bf6116ad6129df565b8585846116ba9190614b77565b6129e7565b600191505092915050565b60003073ffffffffffffffffffffffffffffffffffffffff168373ffffffffffffffffffffffffffffffffffffffff1614156117145761170a8233611c15565b5060019050611720565b61171e838361352f565b505b92915050565b600a60009054906101000a900473ffffffffffffffffffffffffffffffffffffffff1681565b600080600a60009054906101000a900473ffffffffffffffffffffffffffffffffffffffff1673ffffffffffffffffffffffffffffffffffffffff166370a08231336040518263ffffffff1660e01b81526004016117aa91906146cb565b60206040518083038186803b1580156117c257600080fd5b505afa1580156117d6573d6000803e3d6000fd5b505050506040513d601f19601f820116820180604052508101906117fa9190613e6c565b1161180457600080fd5b6000600a60009054906101000a900473ffffffffffffffffffffffffffffffffffffffff1673ffffffffffffffffffffffffffffffffffffffff166370a08231336040518263ffffffff1660e01b815260040161186191906146cb565b60206040518083038186803b15801561187957600080fd5b505afa15801561188d573d6000803e3d6000fd5b505050506040513d601f19601f820116820180604052508101906118b19190613e6c565b9050600081600a60009054906101000a900473ffffffffffffffffffffffffffffffffffffffff1673ffffffffffffffffffffffffffffffffffffffff166370a08231306040518263ffffffff1660e01b815260040161191191906146cb565b60206040518083038186803b15801561192957600080fd5b505afa15801561193d573d6000803e3d6000fd5b505050506040513d601f19601f820116820180604052508101906119619190613e6c565b61196b9190614a96565b90506000823073ffffffffffffffffffffffffffffffffffffffff166370a08231336040518263ffffffff1660e01b81526004016119a991906146cb565b60206040518083038186803b1580156119c157600080fd5b505afa1580156119d5573d6000803e3d6000fd5b505050506040513d601f19601f820116820180604052508101906119f99190613e6c565b611a039190614a96565b9050600a60009054906101000a900473ffffffffffffffffffffffffffffffffffffffff1673ffffffffffffffffffffffffffffffffffffffff166323b872dd3330866040518463ffffffff1660e01b8152600401611a64939291906146e6565b602060405180830381600087803b158015611a7e57600080fd5b505af1158015611a92573d6000803e3d6000fd5b505050506040513d601f19601f82011682018060405250810190611ab69190613d8c565b5081600a60009054906101000a900473ffffffffffffffffffffffffffffffffffffffff1673ffffffffffffffffffffffffffffffffffffffff166370a08231306040518263ffffffff1660e01b8152600401611b1391906146cb565b60206040518083038186803b158015611b2b57600080fd5b505afa158015611b3f573d6000803e3d6000fd5b505050506040513d601f19601f82011682018060405250810190611b639190613e6c565b14611b6d57600080fd5b611b773384613183565b803073ffffffffffffffffffffffffffffffffffffffff166370a08231336040518263ffffffff1660e01b8152600401611bb191906146cb565b60206040518083038186803b158015611bc957600080fd5b505afa158015611bdd573d6000803e3d6000fd5b505050506040513d601f19601f82011682018060405250810190611c019190613e6c565b14611c0b57600080fd5b6001935050505090565b6000823073ffffffffffffffffffffffffffffffffffffffff166370a08231336040518263ffffffff1660e01b8152600401611c5191906146cb565b60206040518083038186803b158015611c6957600080fd5b505afa158015611c7d573d6000803e3d6000fd5b505050506040513d601f19601f82011682018060405250810190611ca19190613e6c565b1015611cac57600080fd5b600083600a60009054906101000a900473ffffffffffffffffffffffffffffffffffffffff1673ffffffffffffffffffffffffffffffffffffffff166370a08231306040518263ffffffff1660e01b8152600401611d0a91906146cb565b60206040518083038186803b158015611d2257600080fd5b505afa158015611d36573d6000803e3d6000fd5b505050506040513d601f19601f82011682018060405250810190611d5a9190613e6c565b611d649190614b77565b90506000843073ffffffffffffffffffffffffffffffffffffffff166370a08231336040518263ffffffff1660e01b8152600401611da291906146cb565b60206040518083038186803b158015611dba57600080fd5b505afa158015611dce573d6000803e3d6000fd5b505050506040513d601f19601f82011682018060405250810190611df29190613e6c565b611dfc9190614b77565b9050611e083386612bb2565b803073ffffffffffffffffffffffffffffffffffffffff166370a08231336040518263ffffffff1660e01b8152600401611e4291906146cb565b60206040518083038186803b158015611e5a57600080fd5b505afa158015611e6e573d6000803e3d6000fd5b505050506040513d601f19601f82011682018060405250810190611e929190613e6c565b14611e9c57600080fd5b600a60009054906101000a900473ffffffffffffffffffffffffffffffffffffffff1673ffffffffffffffffffffffffffffffffffffffff1663a9059cbb85876040518363ffffffff1660e01b8152600401611ef992919061471d565b602060405180830381600087803b158015611f1357600080fd5b505af1158015611f27573d6000803e3d6000fd5b505050506040513d601f19601f82011682018060405250810190611f4b9190613d8c565b5081600a60009054906101000a900473ffffffffffffffffffffffffffffffffffffffff1673ffffffffffffffffffffffffffffffffffffffff166370a08231306040518263ffffffff1660e01b8152600401611fa891906146cb565b60206040518083038186803b158015611fc057600080fd5b505afa158015611fd4573d6000803e3d6000fd5b505050506040513d601f19601f82011682018060405250810190611ff89190613e6c565b1461200257600080fd5b60019250505092915050565b61201782610d22565b612028816120236129df565b613005565b61203283836132d7565b505050565b600082600a60009054906101000a900473ffffffffffffffffffffffffffffffffffffffff1673ffffffffffffffffffffffffffffffffffffffff166370a08231336040518263ffffffff1660e01b815260040161209591906146cb565b60206040518083038186803b1580156120ad57600080fd5b505afa1580156120c1573d6000803e3d6000fd5b505050506040513d601f19601f820116820180604052508101906120e59190613e6c565b10156120f057600080fd5b600083600a60009054906101000a900473ffffffffffffffffffffffffffffffffffffffff1673ffffffffffffffffffffffffffffffffffffffff166370a08231306040518263ffffffff1660e01b815260040161214e91906146cb565b60206040518083038186803b15801561216657600080fd5b505afa15801561217a573d6000803e3d6000fd5b505050506040513d601f19601f8201168201806040525081019061219e9190613e6c565b6121a89190614a96565b90506000843073ffffffffffffffffffffffffffffffffffffffff166370a08231336040518263ffffffff1660e01b81526004016121e691906146cb565b60206040518083038186803b1580156121fe57600080fd5b505afa158015612212573d6000803e3d6000fd5b505050506040513d601f19601f820116820180604052508101906122369190613e6c565b6122409190614a96565b9050600a60009054906101000a900473ffffffffffffffffffffffffffffffffffffffff1673ffffffffffffffffffffffffffffffffffffffff166323b872dd3330886040518463ffffffff1660e01b81526004016122a1939291906146e6565b602060405180830381600087803b1580156122bb57600080fd5b505af11580156122cf573d6000803e3d6000fd5b505050506040513d601f19601f820116820180604052508101906122f39190613d8c565b5081600a60009054906101000a900473ffffffffffffffffffffffffffffffffffffffff1673ffffffffffffffffffffffffffffffffffffffff166370a08231306040518263ffffffff1660e01b815260040161235091906146cb565b60206040518083038186803b15801561236857600080fd5b505afa15801561237c573d6000803e3d6000fd5b505050506040513d601f19601f820116820180604052508101906123a09190613e6c565b146123aa57600080fd5b6123b48486613183565b803073ffffffffffffffffffffffffffffffffffffffff166370a08231336040518263ffffffff1660e01b81526004016123ee91906146cb565b60206040518083038186803b15801561240657600080fd5b505afa15801561241a573d6000803e3d6000fd5b505050506040513d601f19601f8201168201806040525081019061243e9190613e6c565b1461244857600080fd5b60019250505092915050565b6000600160008473ffffffffffffffffffffffffffffffffffffffff1673ffffffffffffffffffffffffffffffffffffffff16815260200190815260200160002060008373ffffffffffffffffffffffffffffffffffffffff1673ffffffffffffffffffffffffffffffffffffffff16815260200190815260200160002054905092915050565b6000813073ffffffffffffffffffffffffffffffffffffffff166370a08231336040518263ffffffff1660e01b815260040161251791906146cb565b60206040518083038186803b15801561252f57600080fd5b505afa158015612543573d6000803e3d6000fd5b505050506040513d601f19601f820116820180604052508101906125679190613e6c565b10156125a8576040517f08c379a000000000000000000000000000000000000000000000000000000000815260040161259f906148f9565b60405180910390fd5b600082600a60009054906101000a900473ffffffffffffffffffffffffffffffffffffffff1673ffffffffffffffffffffffffffffffffffffffff166370a08231306040518263ffffffff1660e01b815260040161260691906146cb565b60206040518083038186803b15801561261e57600080fd5b505afa158015612632573d6000803e3d6000fd5b505050506040513d601f19601f820116820180604052508101906126569190613e6c565b6126609190614b77565b90506000833073ffffffffffffffffffffffffffffffffffffffff166370a08231336040518263ffffffff1660e01b815260040161269e91906146cb565b60206040518083038186803b1580156126b657600080fd5b505afa1580156126ca573d6000803e3d6000fd5b505050506040513d601f19601f820116820180604052508101906126ee9190613e6c565b6126f89190614b77565b90506127043385612bb2565b803073ffffffffffffffffffffffffffffffffffffffff166370a08231336040518263ffffffff1660e01b815260040161273e91906146cb565b60206040518083038186803b15801561275657600080fd5b505afa15801561276a573d6000803e3d6000fd5b505050506040513d601f19601f8201168201806040525081019061278e9190613e6c565b146127ce576040517f08c379a00000000000000000000000000000000000000000000000000000000081526004016127c590614939565b60405180910390fd5b600a60009054906101000a900473ffffffffffffffffffffffffffffffffffffffff1673ffffffffffffffffffffffffffffffffffffffff1663a9059cbb33866040518363ffffffff1660e01b815260040161282b92919061471d565b602060405180830381600087803b15801561284557600080fd5b505af1158015612859573d6000803e3d6000fd5b505050506040513d601f19601f8201168201806040525081019061287d9190613d8c565b5081600a60009054906101000a900473ffffffffffffffffffffffffffffffffffffffff1673ffffffffffffffffffffffffffffffffffffffff166370a08231306040518263ffffffff1660e01b81526004016128da91906146cb565b60206040518083038186803b1580156128f257600080fd5b505afa158015612906573d6000803e3d6000fd5b505050506040513d601f19601f8201168201806040525081019061292a9190613e6c565b1461296a576040517f08c379a000000000000000000000000000000000000000000000000000000000815260040161296190614819565b60405180910390fd5b600192505050919050565b60007f01ffc9a7000000000000000000000000000000000000000000000000000000007bffffffffffffffffffffffffffffffffffffffffffffffffffffffff1916827bffffffffffffffffffffffffffffffffffffffffffffffffffffffff1916149050919050565b600033905090565b600073ffffffffffffffffffffffffffffffffffffffff168373ffffffffffffffffffffffffffffffffffffffff161415612a57576040517f08c379a0000000000000000000000000000000000000000000000000000000008152600401612a4e90614999565b60405180910390fd5b600073ffffffffffffffffffffffffffffffffffffffff168273ffffffffffffffffffffffffffffffffffffffff161415612ac7576040517f08c379a0000000000000000000000000000000000000000000000000000000008152600401612abe90614859565b60405180910390fd5b80600160008573ffffffffffffffffffffffffffffffffffffffff1673ffffffffffffffffffffffffffffffffffffffff16815260200190815260200160002060008473ffffffffffffffffffffffffffffffffffffffff1673ffffffffffffffffffffffffffffffffffffffff168152602001908152602001600020819055508173ffffffffffffffffffffffffffffffffffffffff168373ffffffffffffffffffffffffffffffffffffffff167f8c5be1e5ebec7d5bd14f71427d1e84f3dd0314c0f7b2291e5b200ac8c7c3b92583604051612ba59190614a39565b60405180910390a3505050565b600073ffffffffffffffffffffffffffffffffffffffff168273ffffffffffffffffffffffffffffffffffffffff161415612c22576040517f08c379a0000000000000000000000000000000000000000000000000000000008152600401612c1990614919565b60405180910390fd5b612c2e8260008361354d565b60008060008473ffffffffffffffffffffffffffffffffffffffff1673ffffffffffffffffffffffffffffffffffffffff16815260200190815260200160002054905081811015612cb4576040517f08c379a0000000000000000000000000000000000000000000000000000000008152600401612cab90614839565b60405180910390fd5b8181612cc09190614b77565b6000808573ffffffffffffffffffffffffffffffffffffffff1673ffffffffffffffffffffffffffffffffffffffff168152602001908152602001600020819055508160026000828254612d149190614b77565b92505081905550600073ffffffffffffffffffffffffffffffffffffffff168373ffffffffffffffffffffffffffffffffffffffff167fddf252ad1be2c89b69c2b068fc378daa952ba7f163c4a11628f55a4df523b3ef84604051612d799190614a39565b60405180910390a3505050565b600073ffffffffffffffffffffffffffffffffffffffff168373ffffffffffffffffffffffffffffffffffffffff161415612df6576040517f08c379a0000000000000000000000000000000000000000000000000000000008152600401612ded90614979565b60405180910390fd5b600073ffffffffffffffffffffffffffffffffffffffff168273ffffffffffffffffffffffffffffffffffffffff161415612e66576040517f08c379a0000000000000000000000000000000000000000000000000000000008152600401612e5d906147f9565b60405180910390fd5b612e7183838361354d565b60008060008573ffffffffffffffffffffffffffffffffffffffff1673ffffffffffffffffffffffffffffffffffffffff16815260200190815260200160002054905081811015612ef7576040517f08c379a0000000000000000000000000000000000000000000000000000000008152600401612eee90614899565b60405180910390fd5b8181612f039190614b77565b6000808673ffffffffffffffffffffffffffffffffffffffff1673ffffffffffffffffffffffffffffffffffffffff16815260200190815260200160002081905550816000808573ffffffffffffffffffffffffffffffffffffffff1673ffffffffffffffffffffffffffffffffffffffff1681526020019081526020016000206000828254612f939190614a96565b925050819055508273ffffffffffffffffffffffffffffffffffffffff168473ffffffffffffffffffffffffffffffffffffffff167fddf252ad1be2c89b69c2b068fc378daa952ba7f163c4a11628f55a4df523b3ef84604051612ff79190614a39565b60405180910390a350505050565b61300f8282611463565b61309e576130348173ffffffffffffffffffffffffffffffffffffffff16601461355d565b6130428360001c602061355d565b604051602001613053929190614691565b6040516020818303038152906040526040517f08c379a00000000000000000000000000000000000000000000000000000000081526004016130959190614797565b60405180910390fd5b5050565b6130ac8282611463565b61317f5760016009600084815260200190815260200160002060000160008373ffffffffffffffffffffffffffffffffffffffff1673ffffffffffffffffffffffffffffffffffffffff16815260200190815260200160002060006101000a81548160ff0219169083151502179055506131246129df565b73ffffffffffffffffffffffffffffffffffffffff168173ffffffffffffffffffffffffffffffffffffffff16837f2f8788117e7eff1d82e926ec794901d17c78024a50270940304540a733656f0d60405160405180910390a45b5050565b600073ffffffffffffffffffffffffffffffffffffffff168273ffffffffffffffffffffffffffffffffffffffff1614156131f3576040517f08c379a00000000000000000000000000000000000000000000000000000000081526004016131ea90614a19565b60405180910390fd5b6131ff6000838361354d565b80600260008282546132119190614a96565b92505081905550806000808473ffffffffffffffffffffffffffffffffffffffff1673ffffffffffffffffffffffffffffffffffffffff16815260200190815260200160002060008282546132669190614a96565b925050819055508173ffffffffffffffffffffffffffffffffffffffff16600073ffffffffffffffffffffffffffffffffffffffff167fddf252ad1be2c89b69c2b068fc378daa952ba7f163c4a11628f55a4df523b3ef836040516132cb9190614a39565b60405180910390a35050565b6132e18282611463565b156133b55760006009600084815260200190815260200160002060000160008373ffffffffffffffffffffffffffffffffffffffff1673ffffffffffffffffffffffffffffffffffffffff16815260200190815260200160002060006101000a81548160ff02191690831515021790555061335a6129df565b73ffffffffffffffffffffffffffffffffffffffff168173ffffffffffffffffffffffffffffffffffffffff16837ff6391f5c32d9c69d2a47ea670b442974b53935d1edc7fd64eb21e047a839171b60405160405180910390a45b5050565b600080600084116133ff576040517f08c379a00000000000000000000000000000000000000000000000000000000081526004016133f6906149b9565b60405180910390fd5b6134096008613857565b84111561344b576040517f08c379a0000000000000000000000000000000000000000000000000000000008152600401613442906147b9565b60405180910390fd5b6000613463858560000161386590919063ffffffff16565b905083600001805490508114156134815760008092509250506134d0565b60018460010182815481106134bf577f4e487b7100000000000000000000000000000000000000000000000000000000600052603260045260246000fd5b906000526020600020015492509250505b9250929050565b60006134e3600861398b565b60006134ef6008613857565b90507f8030e83b04d87bef53480e26263266d6ca66863aa8506aca6f2559d18aa1cb67816040516135209190614a39565b60405180910390a18091505090565b600061354361353c6129df565b8484612d86565b6001905092915050565b6135588383836139a1565b505050565b6060600060028360026135709190614b1d565b61357a9190614a96565b67ffffffffffffffff8111156135b9577f4e487b7100000000000000000000000000000000000000000000000000000000600052604160045260246000fd5b6040519080825280601f01601f1916602001820160405280156135eb5781602001600182028036833780820191505090505b5090507f300000000000000000000000000000000000000000000000000000000000000081600081518110613649577f4e487b7100000000000000000000000000000000000000000000000000000000600052603260045260246000fd5b60200101907effffffffffffffffffffffffffffffffffffffffffffffffffffffffffffff1916908160001a9053507f7800000000000000000000000000000000000000000000000000000000000000816001815181106136d3577f4e487b7100000000000000000000000000000000000000000000000000000000600052603260045260246000fd5b60200101907effffffffffffffffffffffffffffffffffffffffffffffffffffffffffffff1916908160001a905350600060018460026137139190614b1d565b61371d9190614a96565b90505b6001811115613809577f3031323334353637383961626364656600000000000000000000000000000000600f861660108110613785577f4e487b7100000000000000000000000000000000000000000000000000000000600052603260045260246000fd5b1a60f81b8282815181106137c2577f4e487b7100000000000000000000000000000000000000000000000000000000600052603260045260246000fd5b60200101907effffffffffffffffffffffffffffffffffffffffffffffffffffffffffffff1916908160001a905350600485901c94508061380290614c8d565b9050613720565b506000841461384d576040517f08c379a0000000000000000000000000000000000000000000000000000000008152600401613844906147d9565b60405180910390fd5b8091505092915050565b600081600001549050919050565b6000808380549050141561387c5760009050613985565b600080848054905090505b8082101561390657600061389b8383613a5b565b9050848682815481106138d7577f4e487b7100000000000000000000000000000000000000000000000000000000600052603260045260246000fd5b906000526020600020015411156138f057809150613900565b6001816138fd9190614a96565b92505b50613887565b600082118015613964575083856001846139209190614b77565b81548110613957577f4e487b7100000000000000000000000000000000000000000000000000000000600052603260045260246000fd5b9060005260206000200154145b1561397f576001826139769190614b77565b92505050613985565b81925050505b92915050565b6001816000016000828254019250508190555050565b6139ac838383613ac2565b600073ffffffffffffffffffffffffffffffffffffffff168373ffffffffffffffffffffffffffffffffffffffff1614156139f7576139ea82613ac7565b6139f2613b1a565b613a56565b600073ffffffffffffffffffffffffffffffffffffffff168273ffffffffffffffffffffffffffffffffffffffff161415613a4257613a3583613ac7565b613a3d613b1a565b613a55565b613a4b83613ac7565b613a5482613ac7565b5b5b505050565b600060028083613a6b9190614ce9565b600285613a789190614ce9565b613a829190614a96565b613a8c9190614aec565b600283613a999190614aec565b600285613aa69190614aec565b613ab09190614a96565b613aba9190614a96565b905092915050565b505050565b613b17600560008373ffffffffffffffffffffffffffffffffffffffff1673ffffffffffffffffffffffffffffffffffffffff168152602001908152602001600020613b12836113f5565b613b2e565b50565b613b2c6006613b27610c17565b613b2e565b565b6000613b3a6008613857565b905080613b4984600001613bab565b1015613ba65782600001819080600181540180825580915050600190039060005260206000200160009091909190915055826001018290806001815401808255809150506001900390600052602060002001600090919091909150555b505050565b60008082805490501415613bc25760009050613c19565b8160018380549050613bd49190614b77565b81548110613c0b577f4e487b7100000000000000000000000000000000000000000000000000000000600052603260045260246000fd5b906000526020600020015490505b919050565b600081359050613c2d81614db8565b92915050565b600081519050613c4281614dcf565b92915050565b600081359050613c5781614de6565b92915050565b600081359050613c6c81614dfd565b92915050565b600081359050613c8181614e14565b92915050565b600081519050613c9681614e14565b92915050565b600060208284031215613cae57600080fd5b6000613cbc84828501613c1e565b91505092915050565b60008060408385031215613cd857600080fd5b6000613ce685828601613c1e565b9250506020613cf785828601613c1e565b9150509250929050565b600080600060608486031215613d1657600080fd5b6000613d2486828701613c1e565b9350506020613d3586828701613c1e565b9250506040613d4686828701613c72565b9150509250925092565b60008060408385031215613d6357600080fd5b6000613d7185828601613c1e565b9250506020613d8285828601613c72565b9150509250929050565b600060208284031215613d9e57600080fd5b6000613dac84828501613c33565b91505092915050565b600060208284031215613dc757600080fd5b6000613dd584828501613c48565b91505092915050565b60008060408385031215613df157600080fd5b6000613dff85828601613c48565b9250506020613e1085828601613c1e565b9150509250929050565b600060208284031215613e2c57600080fd5b6000613e3a84828501613c5d565b91505092915050565b600060208284031215613e5557600080fd5b6000613e6384828501613c72565b91505092915050565b600060208284031215613e7e57600080fd5b6000613e8c84828501613c87565b91505092915050565b60008060408385031215613ea857600080fd5b6000613eb685828601613c72565b9250506020613ec785828601613c1e565b9150509250929050565b613eda81614bab565b82525050565b613ee981614bbd565b82525050565b613ef881614bc9565b82525050565b613f0781614c36565b82525050565b6000613f1882614a6f565b613f228185614a7a565b9350613f32818560208601614c5a565b613f3b81614da7565b840191505092915050565b6000613f5182614a6f565b613f5b8185614a8b565b9350613f6b818560208601614c5a565b80840191505092915050565b6000613f84601d83614a7a565b91507f4552433230536e617073686f743a206e6f6e6578697374656e742069640000006000830152602082019050919050565b6000613fc4602083614a7a565b91507f537472696e67733a20686578206c656e67746820696e73756666696369656e746000830152602082019050919050565b6000614004602383614a7a565b91507f45524332303a207472616e7366657220746f20746865207a65726f206164647260008301527f65737300000000000000000000000000000000000000000000000000000000006020830152604082019050919050565b600061406a600883614a7a565b91507f4572726f722023330000000000000000000000000000000000000000000000006000830152602082019050919050565b60006140aa602283614a7a565b91507f45524332303a206275726e20616d6f756e7420657863656564732062616c616e60008301527f63650000000000000000000000000000000000000000000000000000000000006020830152604082019050919050565b6000614110602283614a7a565b91507f45524332303a20617070726f766520746f20746865207a65726f20616464726560008301527f73730000000000000000000000000000000000000000000000000000000000006020830152604082019050919050565b6000614176600683614a7a565b91507f4572726f723300000000000000000000000000000000000000000000000000006000830152602082019050919050565b60006141b6602683614a7a565b91507f45524332303a207472616e7366657220616d6f756e742065786365656473206260008301527f616c616e636500000000000000000000000000000000000000000000000000006020830152604082019050919050565b600061421c600683614a7a565b91507f4572726f723100000000000000000000000000000000000000000000000000006000830152602082019050919050565b600061425c602883614a7a565b91507f45524332303a207472616e7366657220616d6f756e742065786365656473206160008301527f6c6c6f77616e63650000000000000000000000000000000000000000000000006020830152604082019050919050565b60006142c2600883614a7a565b91507f4572726f722023310000000000000000000000000000000000000000000000006000830152602082019050919050565b6000614302602183614a7a565b91507f45524332303a206275726e2066726f6d20746865207a65726f2061646472657360008301527f73000000000000000000000000000000000000000000000000000000000000006020830152604082019050919050565b6000614368600883614a7a565b91507f4572726f722023320000000000000000000000000000000000000000000000006000830152602082019050919050565b60006143a8600683614a7a565b91507f4572726f723200000000000000000000000000000000000000000000000000006000830152602082019050919050565b60006143e8602583614a7a565b91507f45524332303a207472616e736665722066726f6d20746865207a65726f20616460008301527f64726573730000000000000000000000000000000000000000000000000000006020830152604082019050919050565b600061444e602483614a7a565b91507f45524332303a20617070726f76652066726f6d20746865207a65726f2061646460008301527f72657373000000000000000000000000000000000000000000000000000000006020830152604082019050919050565b60006144b4601683614a7a565b91507f4552433230536e617073686f743a2069642069732030000000000000000000006000830152602082019050919050565b60006144f4601783614a8b565b91507f416363657373436f6e74726f6c3a206163636f756e74200000000000000000006000830152601782019050919050565b6000614534602583614a7a565b91507f45524332303a2064656372656173656420616c6c6f77616e63652062656c6f7760008301527f207a65726f0000000000000000000000000000000000000000000000000000006020830152604082019050919050565b600061459a601183614a8b565b91507f206973206d697373696e6720726f6c65200000000000000000000000000000006000830152601182019050919050565b60006145da602f83614a7a565b91507f416363657373436f6e74726f6c3a2063616e206f6e6c792072656e6f756e636560008301527f20726f6c657320666f722073656c6600000000000000000000000000000000006020830152604082019050919050565b6000614640601f83614a7a565b91507f45524332303a206d696e7420746f20746865207a65726f2061646472657373006000830152602082019050919050565b61467c81614c1f565b82525050565b61468b81614c29565b82525050565b600061469c826144e7565b91506146a88285613f46565b91506146b38261458d565b91506146bf8284613f46565b91508190509392505050565b60006020820190506146e06000830184613ed1565b92915050565b60006060820190506146fb6000830186613ed1565b6147086020830185613ed1565b6147156040830184614673565b949350505050565b60006040820190506147326000830185613ed1565b61473f6020830184614673565b9392505050565b600060208201905061475b6000830184613ee0565b92915050565b60006020820190506147766000830184613eef565b92915050565b60006020820190506147916000830184613efe565b92915050565b600060208201905081810360008301526147b18184613f0d565b905092915050565b600060208201905081810360008301526147d281613f77565b9050919050565b600060208201905081810360008301526147f281613fb7565b9050919050565b6000602082019050818103600083015261481281613ff7565b9050919050565b600060208201905081810360008301526148328161405d565b9050919050565b600060208201905081810360008301526148528161409d565b9050919050565b6000602082019050818103600083015261487281614103565b9050919050565b6000602082019050818103600083015261489281614169565b9050919050565b600060208201905081810360008301526148b2816141a9565b9050919050565b600060208201905081810360008301526148d28161420f565b9050919050565b600060208201905081810360008301526148f28161424f565b9050919050565b60006020820190508181036000830152614912816142b5565b9050919050565b60006020820190508181036000830152614932816142f5565b9050919050565b600060208201905081810360008301526149528161435b565b9050919050565b600060208201905081810360008301526149728161439b565b9050919050565b60006020820190508181036000830152614992816143db565b9050919050565b600060208201905081810360008301526149b281614441565b9050919050565b600060208201905081810360008301526149d2816144a7565b9050919050565b600060208201905081810360008301526149f281614527565b9050919050565b60006020820190508181036000830152614a12816145cd565b9050919050565b60006020820190508181036000830152614a3281614633565b9050919050565b6000602082019050614a4e6000830184614673565b92915050565b6000602082019050614a696000830184614682565b92915050565b600081519050919050565b600082825260208201905092915050565b600081905092915050565b6000614aa182614c1f565b9150614aac83614c1f565b9250827fffffffffffffffffffffffffffffffffffffffffffffffffffffffffffffffff03821115614ae157614ae0614d1a565b5b828201905092915050565b6000614af782614c1f565b9150614b0283614c1f565b925082614b1257614b11614d49565b5b828204905092915050565b6000614b2882614c1f565b9150614b3383614c1f565b9250817fffffffffffffffffffffffffffffffffffffffffffffffffffffffffffffffff0483118215151615614b6c57614b6b614d1a565b5b828202905092915050565b6000614b8282614c1f565b9150614b8d83614c1f565b925082821015614ba057614b9f614d1a565b5b828203905092915050565b6000614bb682614bff565b9050919050565b60008115159050919050565b6000819050919050565b60007fffffffff0000000000000000000000000000000000000000000000000000000082169050919050565b600073ffffffffffffffffffffffffffffffffffffffff82169050919050565b6000819050919050565b600060ff82169050919050565b6000614c4182614c48565b9050919050565b6000614c5382614bff565b9050919050565b60005b83811015614c78578082015181840152602081019050614c5d565b83811115614c87576000848401525b50505050565b6000614c9882614c1f565b91506000821415614cac57614cab614d1a565b5b600182039050919050565b60006002820490506001821680614ccf57607f821691505b60208210811415614ce357614ce2614d78565b5b50919050565b6000614cf482614c1f565b9150614cff83614c1f565b925082614d0f57614d0e614d49565b5b828206905092915050565b7f4e487b7100000000000000000000000000000000000000000000000000000000600052601160045260246000fd5b7f4e487b7100000000000000000000000000000000000000000000000000000000600052601260045260246000fd5b7f4e487b7100000000000000000000000000000000000000000000000000000000600052602260045260246000fd5b6000601f19601f8301169050919050565b614dc181614bab565b8114614dcc57600080fd5b50565b614dd881614bbd565b8114614de357600080fd5b50565b614def81614bc9565b8114614dfa57600080fd5b50565b614e0681614bd3565b8114614e1157600080fd5b50565b614e1d81614c1f565b8114614e2857600080fd5b5056fea264697066735822122063cb1050f3d50284d97d7060d0b4ea51142734e5bb4b446d8018eb909cb88fca64736f6c63430008000033",
  "immutableReferences": {},
  "source": "// SPDX-License-Identifier: MIT\n/// @title Honey Bees\n/// @author sirwithacomputer\n/// @notice This contract wraps HNY into BEES at a 1:1,000,000 Ratio.\n/// You can unwrap your honey at any time by sending bees back to the contract...\n/// \n\n////////////////////////////////////////////////////////\n///  ONLY SEND BEES TO THE CONTRACT! ///////////////\n///  DO NOT SEND HONEY TO THE CONTRACT!/////////////\n////////////////////////////////////////////////////////\n\n////////////////////////////////////////////////////////////////////\n// Contract has not been audited. This is just a project for fun.\n// Use at your own risk!\n// I made this using YFI's woofy as an inspiration.\n// Feel free to reuse or modify the code as you like.\n// Cheers \n////////////////////////////////////////////////////////////////////\n\n\n\npragma solidity ^0.8.0;\n\nimport \"@openzeppelin/contracts/token/ERC20/ERC20.sol\";\n\n// Adding a snapshotrole so holders can still vote on 1Hive (if so decided by the DAO) \nimport \"@openzeppelin/contracts/token/ERC20/extensions/ERC20Snapshot.sol\";\nimport \"@openzeppelin/contracts/access/AccessControl.sol\";\n\ncontract HoneyBees is ERC20, ERC20Snapshot, AccessControl {\n\n    \n    ERC20 public honeyAddress; \n\n    bytes32 public constant SNAPSHOT_ROLE = keccak256(\"SNAPSHOT_ROLE\");\n    \n    // Set 1Hive Agent address in deployer\n    address public honeyDAOAgentAddress;\n\n    constructor(address honeyTokenAddress, address DAOAgentAddress) ERC20(\"HoneyBees\", \"BEES\") {\n\n      // Giving control (and snapshot ability) to the 1Hive Aragon Agent\n        honeyAddress = ERC20(honeyTokenAddress);\n\n        honeyDAOAgentAddress = DAOAgentAddress;\n\n        _setupRole(DEFAULT_ADMIN_ROLE, honeyDAOAgentAddress);\n        _setupRole(SNAPSHOT_ROLE, honeyDAOAgentAddress);\n    }\n    \n    function decimals() public view virtual override returns (uint8) {\n\n        // This is what give us our HNY/BEES ratio. Right now, I just did 1:1,000,000\n        return 12;\n    }\n\n    function attractBees() public returns (bool) {\n        \n        require(honeyAddress.balanceOf(msg.sender) > 0);\n        uint256 amountOfHoney = honeyAddress.balanceOf(msg.sender);      \n        uint256 expectedNewContractHoneyBalance = honeyAddress.balanceOf(address(this)) + amountOfHoney;\n        uint256 expectedNewUserBeeBalance = this.balanceOf(msg.sender) + amountOfHoney;\n        \n        honeyAddress.transferFrom(msg.sender, address(this), amountOfHoney);\n        \n        require(honeyAddress.balanceOf(address(this)) == expectedNewContractHoneyBalance);\n        _mint(msg.sender, amountOfHoney);\n\n        require(this.balanceOf(msg.sender) == expectedNewUserBeeBalance);\n        return true;\n    }\n\n    function attractBees(uint256 amountOfHoney) public returns (bool) {\n        \n        require(honeyAddress.balanceOf(msg.sender) >= amountOfHoney, \"Error1\");\n        uint256 expectedNewContractHoneyBalance = honeyAddress.balanceOf(address(this)) + amountOfHoney;\n        uint256 expectedNewUserBeeBalance = this.balanceOf(msg.sender) + amountOfHoney;\n\n        honeyAddress.transferFrom(msg.sender, address(this), amountOfHoney);\n        \n        require(honeyAddress.balanceOf(address(this)) == expectedNewContractHoneyBalance, \"Error2\");\n        _mint(msg.sender, amountOfHoney);\n\n        require(this.balanceOf(msg.sender) == expectedNewUserBeeBalance, \"Error3\");\n        return true;\n    }\n\n    function attractBees(uint256 amountOfHoney, address sendTo) public returns (bool) {\n\n        require(honeyAddress.balanceOf(msg.sender) >= amountOfHoney);\n        uint256 expectedNewContractHoneyBalance = honeyAddress.balanceOf(address(this)) + amountOfHoney;\n        uint256 expectedNewUserBeeBalance = this.balanceOf(msg.sender) + amountOfHoney;\n\n        honeyAddress.transferFrom(msg.sender, address(this), amountOfHoney);\n\n        require(honeyAddress.balanceOf(address(this)) == expectedNewContractHoneyBalance);\n         _mint(sendTo, amountOfHoney);\n\n        require(this.balanceOf(msg.sender) == expectedNewUserBeeBalance);\n        return true;\n    }\n    \n    function collectHoney() public returns (bool) {\n\n        require(this.balanceOf(msg.sender) >= 0);\n        uint256 numberOfBees = this.balanceOf(msg.sender);\n        uint256 expectedNewContractHoneyBalance = honeyAddress.balanceOf(address(this)) - numberOfBees;   \n        uint256 expectedNewUserBeeBalance = this.balanceOf(msg.sender) - numberOfBees;\n\n        _burn(msg.sender, numberOfBees);\n\n        require(this.balanceOf(msg.sender) == expectedNewUserBeeBalance);\n        honeyAddress.transfer(msg.sender, numberOfBees);\n  \n        require(honeyAddress.balanceOf(address(this)) == expectedNewContractHoneyBalance);\n        return true;\n    }\n\n    function collectHoney(uint256 numberOfBees) public returns (bool) {\n\n        require(this.balanceOf(msg.sender) >= numberOfBees, \"Error #1\");\n        uint256 expectedNewContractHoneyBalance = honeyAddress.balanceOf(address(this)) - numberOfBees;\n        uint256 expectedNewUserBeeBalance = this.balanceOf(msg.sender) - numberOfBees;\n         \n        _burn(msg.sender, numberOfBees);\n         \n        require(this.balanceOf(msg.sender) == expectedNewUserBeeBalance, \"Error #2\"); \n        honeyAddress.transfer(msg.sender, numberOfBees);\n        \n        require(honeyAddress.balanceOf(address(this)) == expectedNewContractHoneyBalance, \"Error #3\");\n        return true;\n    }\n\n    function collectHoney(uint256 numberOfBees, address sendTo) public returns (bool) {\n\n        require(this.balanceOf(msg.sender) >= numberOfBees);\n         uint256 expectedNewContractHoneyBalance = honeyAddress.balanceOf(address(this)) - numberOfBees;\n         uint256 expectedNewUserBeeBalance = this.balanceOf(msg.sender) - numberOfBees;\n\n         _burn(msg.sender, numberOfBees);\n\n        require(this.balanceOf(msg.sender) == expectedNewUserBeeBalance);\n         honeyAddress.transfer(sendTo, numberOfBees);\n        \n        require(honeyAddress.balanceOf(address(this)) == expectedNewContractHoneyBalance);\n         return true;\n    }\n\n\n    function transfer(address recipient, uint256 amount) public virtual override (ERC20)\n        returns (bool)\n    {\n        if (recipient == address(this)) {\n            collectHoney(amount, msg.sender);\n            return true;\n        } else {\n        super.transfer(recipient, amount);        }\n    }\n\n    function snapshot() public {\n        require(hasRole(SNAPSHOT_ROLE, msg.sender));\n        _snapshot();\n    }\n\n    function _beforeTokenTransfer(address from, address to, uint256 amount) internal\n        override(ERC20, ERC20Snapshot)\n    {\n        super._beforeTokenTransfer(from, to, amount);\n    }\n\n}",
  "sourcePath": "/home/j/Github Projects/HoneyBees/contracts/HoneyBees.sol",
  "compiler": {
    "name": "solc",
    "version": "0.8.0+commit.c7dfd78e.Emscripten.clang"
  },
  "schemaVersion": "3.4.1",
  "updatedAt": "2021-06-05T02:04:20.717Z",
  "networkType": "ethereum",
  "devdoc": {
    "kind": "dev",
    "methods": {
      "allowance(address,address)": {
        "details": "See {IERC20-allowance}."
      },
      "approve(address,uint256)": {
        "details": "See {IERC20-approve}. Requirements: - `spender` cannot be the zero address."
      },
      "balanceOf(address)": {
        "details": "See {IERC20-balanceOf}."
      },
      "balanceOfAt(address,uint256)": {
        "details": "Retrieves the balance of `account` at the time `snapshotId` was created."
      },
      "decimals()": {
        "details": "Returns the number of decimals used to get its user representation. For example, if `decimals` equals `2`, a balance of `505` tokens should be displayed to a user as `5,05` (`505 / 10 ** 2`). Tokens usually opt for a value of 18, imitating the relationship between Ether and Wei. This is the value {ERC20} uses, unless this function is overridden; NOTE: This information is only used for _display_ purposes: it in no way affects any of the arithmetic of the contract, including {IERC20-balanceOf} and {IERC20-transfer}."
      },
      "decreaseAllowance(address,uint256)": {
        "details": "Atomically decreases the allowance granted to `spender` by the caller. This is an alternative to {approve} that can be used as a mitigation for problems described in {IERC20-approve}. Emits an {Approval} event indicating the updated allowance. Requirements: - `spender` cannot be the zero address. - `spender` must have allowance for the caller of at least `subtractedValue`."
      },
      "getRoleAdmin(bytes32)": {
        "details": "Returns the admin role that controls `role`. See {grantRole} and {revokeRole}. To change a role's admin, use {_setRoleAdmin}."
      },
      "grantRole(bytes32,address)": {
        "details": "Grants `role` to `account`. If `account` had not been already granted `role`, emits a {RoleGranted} event. Requirements: - the caller must have ``role``'s admin role."
      },
      "hasRole(bytes32,address)": {
        "details": "Returns `true` if `account` has been granted `role`."
      },
      "increaseAllowance(address,uint256)": {
        "details": "Atomically increases the allowance granted to `spender` by the caller. This is an alternative to {approve} that can be used as a mitigation for problems described in {IERC20-approve}. Emits an {Approval} event indicating the updated allowance. Requirements: - `spender` cannot be the zero address."
      },
      "name()": {
        "details": "Returns the name of the token."
      },
      "renounceRole(bytes32,address)": {
        "details": "Revokes `role` from the calling account. Roles are often managed via {grantRole} and {revokeRole}: this function's purpose is to provide a mechanism for accounts to lose their privileges if they are compromised (such as when a trusted device is misplaced). If the calling account had been granted `role`, emits a {RoleRevoked} event. Requirements: - the caller must be `account`."
      },
      "revokeRole(bytes32,address)": {
        "details": "Revokes `role` from `account`. If `account` had been granted `role`, emits a {RoleRevoked} event. Requirements: - the caller must have ``role``'s admin role."
      },
      "supportsInterface(bytes4)": {
        "details": "See {IERC165-supportsInterface}."
      },
      "symbol()": {
        "details": "Returns the symbol of the token, usually a shorter version of the name."
      },
      "totalSupply()": {
        "details": "See {IERC20-totalSupply}."
      },
      "totalSupplyAt(uint256)": {
        "details": "Retrieves the total supply at the time `snapshotId` was created."
      },
      "transfer(address,uint256)": {
        "details": "See {IERC20-transfer}. Requirements: - `recipient` cannot be the zero address. - the caller must have a balance of at least `amount`."
      },
      "transferFrom(address,address,uint256)": {
        "details": "See {IERC20-transferFrom}. Emits an {Approval} event indicating the updated allowance. This is not required by the EIP. See the note at the beginning of {ERC20}. Requirements: - `sender` and `recipient` cannot be the zero address. - `sender` must have a balance of at least `amount`. - the caller must have allowance for ``sender``'s tokens of at least `amount`."
      }
    },
    "version": 1
  },
  "userdoc": {
    "kind": "user",
    "methods": {},
    "version": 1
  }
}