{
  "contractName": "HoneyBees",
  "abi": [
    {
      "inputs": [],
      "stateMutability": "nonpayable",
      "type": "constructor"
    },
    {
      "anonymous": false,
      "inputs": [
        {
          "indexed": true,
          "internalType": "address",
          "name": "owner",
          "type": "address"
        },
        {
          "indexed": true,
          "internalType": "address",
          "name": "spender",
          "type": "address"
        },
        {
          "indexed": false,
          "internalType": "uint256",
          "name": "value",
          "type": "uint256"
        }
      ],
      "name": "Approval",
      "type": "event"
    },
    {
      "anonymous": false,
      "inputs": [
        {
          "indexed": true,
          "internalType": "address",
          "name": "from",
          "type": "address"
        },
        {
          "indexed": true,
          "internalType": "address",
          "name": "to",
          "type": "address"
        },
        {
          "indexed": false,
          "internalType": "uint256",
          "name": "value",
          "type": "uint256"
        }
      ],
      "name": "Transfer",
      "type": "event"
    },
    {
      "inputs": [
        {
          "internalType": "address",
          "name": "owner",
          "type": "address"
        },
        {
          "internalType": "address",
          "name": "spender",
          "type": "address"
        }
      ],
      "name": "allowance",
      "outputs": [
        {
          "internalType": "uint256",
          "name": "",
          "type": "uint256"
        }
      ],
      "stateMutability": "view",
      "type": "function",
      "constant": true
    },
    {
      "inputs": [
        {
          "internalType": "address",
          "name": "spender",
          "type": "address"
        },
        {
          "internalType": "uint256",
          "name": "amount",
          "type": "uint256"
        }
      ],
      "name": "approve",
      "outputs": [
        {
          "internalType": "bool",
          "name": "",
          "type": "bool"
        }
      ],
      "stateMutability": "nonpayable",
      "type": "function"
    },
    {
      "inputs": [
        {
          "internalType": "address",
          "name": "account",
          "type": "address"
        }
      ],
      "name": "balanceOf",
      "outputs": [
        {
          "internalType": "uint256",
          "name": "",
          "type": "uint256"
        }
      ],
      "stateMutability": "view",
      "type": "function",
      "constant": true
    },
    {
      "inputs": [
        {
          "internalType": "address",
          "name": "spender",
          "type": "address"
        },
        {
          "internalType": "uint256",
          "name": "subtractedValue",
          "type": "uint256"
        }
      ],
      "name": "decreaseAllowance",
      "outputs": [
        {
          "internalType": "bool",
          "name": "",
          "type": "bool"
        }
      ],
      "stateMutability": "nonpayable",
      "type": "function"
    },
    {
      "inputs": [],
      "name": "honeyAddress",
      "outputs": [
        {
          "internalType": "contract ERC20",
          "name": "",
          "type": "address"
        }
      ],
      "stateMutability": "view",
      "type": "function",
      "constant": true
    },
    {
      "inputs": [
        {
          "internalType": "address",
          "name": "spender",
          "type": "address"
        },
        {
          "internalType": "uint256",
          "name": "addedValue",
          "type": "uint256"
        }
      ],
      "name": "increaseAllowance",
      "outputs": [
        {
          "internalType": "bool",
          "name": "",
          "type": "bool"
        }
      ],
      "stateMutability": "nonpayable",
      "type": "function"
    },
    {
      "inputs": [],
      "name": "name",
      "outputs": [
        {
          "internalType": "string",
          "name": "",
          "type": "string"
        }
      ],
      "stateMutability": "view",
      "type": "function",
      "constant": true
    },
    {
      "inputs": [],
      "name": "symbol",
      "outputs": [
        {
          "internalType": "string",
          "name": "",
          "type": "string"
        }
      ],
      "stateMutability": "view",
      "type": "function",
      "constant": true
    },
    {
      "inputs": [],
      "name": "totalSupply",
      "outputs": [
        {
          "internalType": "uint256",
          "name": "",
          "type": "uint256"
        }
      ],
      "stateMutability": "view",
      "type": "function",
      "constant": true
    },
    {
      "inputs": [
        {
          "internalType": "address",
          "name": "sender",
          "type": "address"
        },
        {
          "internalType": "address",
          "name": "recipient",
          "type": "address"
        },
        {
          "internalType": "uint256",
          "name": "amount",
          "type": "uint256"
        }
      ],
      "name": "transferFrom",
      "outputs": [
        {
          "internalType": "bool",
          "name": "",
          "type": "bool"
        }
      ],
      "stateMutability": "nonpayable",
      "type": "function"
    },
    {
      "inputs": [],
      "name": "decimals",
      "outputs": [
        {
          "internalType": "uint8",
          "name": "",
          "type": "uint8"
        }
      ],
      "stateMutability": "view",
      "type": "function",
      "constant": true
    },
    {
      "inputs": [
        {
          "internalType": "uint256",
          "name": "amountOfHoney",
          "type": "uint256"
        }
      ],
      "name": "attractBees",
      "outputs": [
        {
          "internalType": "bool",
          "name": "",
          "type": "bool"
        }
      ],
      "stateMutability": "nonpayable",
      "type": "function"
    },
    {
      "inputs": [],
      "name": "attractBees",
      "outputs": [
        {
          "internalType": "bool",
          "name": "",
          "type": "bool"
        }
      ],
      "stateMutability": "nonpayable",
      "type": "function"
    },
    {
      "inputs": [
        {
          "internalType": "uint256",
          "name": "amountOfHoney",
          "type": "uint256"
        },
        {
          "internalType": "address",
          "name": "sendTo",
          "type": "address"
        }
      ],
      "name": "attractBees",
      "outputs": [
        {
          "internalType": "bool",
          "name": "",
          "type": "bool"
        }
      ],
      "stateMutability": "nonpayable",
      "type": "function"
    },
    {
      "inputs": [],
      "name": "collectHoney",
      "outputs": [
        {
          "internalType": "bool",
          "name": "",
          "type": "bool"
        }
      ],
      "stateMutability": "nonpayable",
      "type": "function"
    },
    {
      "inputs": [
        {
          "internalType": "uint256",
          "name": "numberOfBees",
          "type": "uint256"
        },
        {
          "internalType": "address",
          "name": "sendTo",
          "type": "address"
        }
      ],
      "name": "collectHoney",
      "outputs": [
        {
          "internalType": "bool",
          "name": "",
          "type": "bool"
        }
      ],
      "stateMutability": "nonpayable",
      "type": "function"
    },
    {
      "inputs": [
        {
          "internalType": "uint256",
          "name": "numberOfBees",
          "type": "uint256"
        }
      ],
      "name": "collectHoney",
      "outputs": [
        {
          "internalType": "bool",
          "name": "",
          "type": "bool"
        }
      ],
      "stateMutability": "nonpayable",
      "type": "function"
    },
    {
      "inputs": [
        {
          "internalType": "address",
          "name": "recipient",
          "type": "address"
        },
        {
          "internalType": "uint256",
          "name": "amount",
          "type": "uint256"
        }
      ],
      "name": "transfer",
      "outputs": [
        {
          "internalType": "bool",
          "name": "",
          "type": "bool"
        }
      ],
      "stateMutability": "nonpayable",
      "type": "function"
    }
  ],
  "bytecode": "0x60806040527379aaddb5c58ef693374d8162fa67b3bd7d795391600560006101000a81548173ffffffffffffffffffffffffffffffffffffffff021916908373ffffffffffffffffffffffffffffffffffffffff1602179055503480156200006657600080fd5b506040518060400160405280600981526020017f486f6e65794265657300000000000000000000000000000000000000000000008152506040518060400160405280600481526020017f42454553000000000000000000000000000000000000000000000000000000008152508160039080519060200190620000eb9291906200010d565b508060049080519060200190620001049291906200010d565b50505062000222565b8280546200011b90620001bd565b90600052602060002090601f0160209004810192826200013f57600085556200018b565b82601f106200015a57805160ff19168380011785556200018b565b828001600101855582156200018b579182015b828111156200018a5782518255916020019190600101906200016d565b5b5090506200019a91906200019e565b5090565b5b80821115620001b95760008160009055506001016200019f565b5090565b60006002820490506001821680620001d657607f821691505b60208210811415620001ed57620001ec620001f3565b5b50919050565b7f4e487b7100000000000000000000000000000000000000000000000000000000600052602260045260246000fd5b6134fe80620002326000396000f3fe608060405234801561001057600080fd5b50600436106101165760003560e01c806395d89b41116100a2578063bd16d66611610071578063bd16d6661461031f578063bd9c79381461033d578063d7d7da3e1461036d578063dd62ed3e1461039d578063f2499614146103cd57610116565b806395d89b4114610283578063a457c2d7146102a1578063a9059cbb146102d1578063b3d8d0791461030157610116565b806323b872dd116100e957806323b872dd146101a5578063313ce567146101d557806335113ac9146101f3578063395093511461022357806370a082311461025357610116565b806306fdde031461011b578063095ea7b3146101395780630bd96a4e1461016957806318160ddd14610187575b600080fd5b6101236103fd565b60405161013091906130f8565b60405180910390f35b610153600480360381019061014e9190612afa565b61048f565b60405161016091906130c2565b60405180910390f35b6101716104ad565b60405161017e91906130c2565b60405180910390f35b61018f61090f565b60405161019c919061325a565b60405180910390f35b6101bf60048036038101906101ba9190612aab565b610919565b6040516101cc91906130c2565b60405180910390f35b6101dd610a1a565b6040516101ea9190613275565b60405180910390f35b61020d60048036038101906102089190612b5f565b610a23565b60405161021a91906130c2565b60405180910390f35b61023d60048036038101906102389190612afa565b610e3f565b60405161024a91906130c2565b60405180910390f35b61026d60048036038101906102689190612a46565b610eeb565b60405161027a919061325a565b60405180910390f35b61028b610f33565b60405161029891906130f8565b60405180910390f35b6102bb60048036038101906102b69190612afa565b610fc5565b6040516102c891906130c2565b60405180910390f35b6102eb60048036038101906102e69190612afa565b6110b9565b6040516102f891906130c2565b60405180910390f35b610309611115565b60405161031691906130dd565b60405180910390f35b61032761113b565b60405161033491906130c2565b60405180910390f35b61035760048036038101906103529190612bb1565b611604565b60405161036491906130c2565b60405180910390f35b61038760048036038101906103829190612bb1565b6119db565b60405161039491906130c2565b60405180910390f35b6103b760048036038101906103b29190612a6f565b611df8565b6040516103c4919061325a565b60405180910390f35b6103e760048036038101906103e29190612b5f565b611e7f565b6040516103f491906130c2565b60405180910390f35b60606003805461040c906133e2565b80601f0160208091040260200160405190810160405280929190818152602001828054610438906133e2565b80156104855780601f1061045a57610100808354040283529160200191610485565b820191906000526020600020905b81548152906001019060200180831161046857829003601f168201915b5050505050905090565b60006104a361049c612255565b848461225d565b6001905092915050565b6000803073ffffffffffffffffffffffffffffffffffffffff166370a08231336040518263ffffffff1660e01b81526004016104e99190613047565b60206040518083038186803b15801561050157600080fd5b505afa158015610515573d6000803e3d6000fd5b505050506040513d601f19601f820116820180604052508101906105399190612b88565b101561054457600080fd5b60003073ffffffffffffffffffffffffffffffffffffffff166370a08231336040518263ffffffff1660e01b815260040161057f9190613047565b60206040518083038186803b15801561059757600080fd5b505afa1580156105ab573d6000803e3d6000fd5b505050506040513d601f19601f820116820180604052508101906105cf9190612b88565b9050600081600560009054906101000a900473ffffffffffffffffffffffffffffffffffffffff1673ffffffffffffffffffffffffffffffffffffffff166370a08231306040518263ffffffff1660e01b815260040161062f9190613047565b60206040518083038186803b15801561064757600080fd5b505afa15801561065b573d6000803e3d6000fd5b505050506040513d601f19601f8201168201806040525081019061067f9190612b88565b6106899190613302565b90506000823073ffffffffffffffffffffffffffffffffffffffff166370a08231336040518263ffffffff1660e01b81526004016106c79190613047565b60206040518083038186803b1580156106df57600080fd5b505afa1580156106f3573d6000803e3d6000fd5b505050506040513d601f19601f820116820180604052508101906107179190612b88565b6107219190613302565b905061072d3384612428565b803073ffffffffffffffffffffffffffffffffffffffff166370a08231336040518263ffffffff1660e01b81526004016107679190613047565b60206040518083038186803b15801561077f57600080fd5b505afa158015610793573d6000803e3d6000fd5b505050506040513d601f19601f820116820180604052508101906107b79190612b88565b146107c157600080fd5b600560009054906101000a900473ffffffffffffffffffffffffffffffffffffffff1673ffffffffffffffffffffffffffffffffffffffff1663a9059cbb33856040518363ffffffff1660e01b815260040161081e929190613099565b602060405180830381600087803b15801561083857600080fd5b505af115801561084c573d6000803e3d6000fd5b505050506040513d601f19601f820116820180604052508101906108709190612b36565b50813073ffffffffffffffffffffffffffffffffffffffff166370a08231306040518263ffffffff1660e01b81526004016108ab9190613047565b60206040518083038186803b1580156108c357600080fd5b505afa1580156108d7573d6000803e3d6000fd5b505050506040513d601f19601f820116820180604052508101906108fb9190612b88565b1461090557600080fd5b6001935050505090565b6000600254905090565b60006109268484846125fc565b6000600160008673ffffffffffffffffffffffffffffffffffffffff1673ffffffffffffffffffffffffffffffffffffffff1681526020019081526020016000206000610971612255565b73ffffffffffffffffffffffffffffffffffffffff1673ffffffffffffffffffffffffffffffffffffffff168152602001908152602001600020549050828110156109f1576040517f08c379a00000000000000000000000000000000000000000000000000000000081526004016109e89061319a565b60405180910390fd5b610a0e856109fd612255565b8584610a099190613302565b61225d565b60019150509392505050565b6000600c905090565b600081600560009054906101000a900473ffffffffffffffffffffffffffffffffffffffff1673ffffffffffffffffffffffffffffffffffffffff166370a08231336040518263ffffffff1660e01b8152600401610a819190613047565b60206040518083038186803b158015610a9957600080fd5b505afa158015610aad573d6000803e3d6000fd5b505050506040513d601f19601f82011682018060405250810190610ad19190612b88565b1015610adc57600080fd5b600082600560009054906101000a900473ffffffffffffffffffffffffffffffffffffffff1673ffffffffffffffffffffffffffffffffffffffff166370a08231306040518263ffffffff1660e01b8152600401610b3a9190613047565b60206040518083038186803b158015610b5257600080fd5b505afa158015610b66573d6000803e3d6000fd5b505050506040513d601f19601f82011682018060405250810190610b8a9190612b88565b610b9491906132ac565b90506000833073ffffffffffffffffffffffffffffffffffffffff166370a08231336040518263ffffffff1660e01b8152600401610bd29190613047565b60206040518083038186803b158015610bea57600080fd5b505afa158015610bfe573d6000803e3d6000fd5b505050506040513d601f19601f82011682018060405250810190610c229190612b88565b610c2c91906132ac565b9050600560009054906101000a900473ffffffffffffffffffffffffffffffffffffffff1673ffffffffffffffffffffffffffffffffffffffff166323b872dd3330876040518463ffffffff1660e01b8152600401610c8d93929190613062565b602060405180830381600087803b158015610ca757600080fd5b505af1158015610cbb573d6000803e3d6000fd5b505050506040513d601f19601f82011682018060405250810190610cdf9190612b36565b5081600560009054906101000a900473ffffffffffffffffffffffffffffffffffffffff1673ffffffffffffffffffffffffffffffffffffffff166370a08231306040518263ffffffff1660e01b8152600401610d3c9190613047565b60206040518083038186803b158015610d5457600080fd5b505afa158015610d68573d6000803e3d6000fd5b505050506040513d601f19601f82011682018060405250810190610d8c9190612b88565b14610d9657600080fd5b610da0338561287b565b803073ffffffffffffffffffffffffffffffffffffffff166370a08231336040518263ffffffff1660e01b8152600401610dda9190613047565b60206040518083038186803b158015610df257600080fd5b505afa158015610e06573d6000803e3d6000fd5b505050506040513d601f19601f82011682018060405250810190610e2a9190612b88565b14610e3457600080fd5b600192505050919050565b6000610ee1610e4c612255565b848460016000610e5a612255565b73ffffffffffffffffffffffffffffffffffffffff1673ffffffffffffffffffffffffffffffffffffffff16815260200190815260200160002060008873ffffffffffffffffffffffffffffffffffffffff1673ffffffffffffffffffffffffffffffffffffffff16815260200190815260200160002054610edc91906132ac565b61225d565b6001905092915050565b60008060008373ffffffffffffffffffffffffffffffffffffffff1673ffffffffffffffffffffffffffffffffffffffff168152602001908152602001600020549050919050565b606060048054610f42906133e2565b80601f0160208091040260200160405190810160405280929190818152602001828054610f6e906133e2565b8015610fbb5780601f10610f9057610100808354040283529160200191610fbb565b820191906000526020600020905b815481529060010190602001808311610f9e57829003601f168201915b5050505050905090565b60008060016000610fd4612255565b73ffffffffffffffffffffffffffffffffffffffff1673ffffffffffffffffffffffffffffffffffffffff16815260200190815260200160002060008573ffffffffffffffffffffffffffffffffffffffff1673ffffffffffffffffffffffffffffffffffffffff16815260200190815260200160002054905082811015611091576040517f08c379a00000000000000000000000000000000000000000000000000000000081526004016110889061321a565b60405180910390fd5b6110ae61109c612255565b8585846110a99190613302565b61225d565b600191505092915050565b60003073ffffffffffffffffffffffffffffffffffffffff168373ffffffffffffffffffffffffffffffffffffffff161415611103576110f98233611604565b506001905061110f565b61110d83836129cf565b505b92915050565b600560009054906101000a900473ffffffffffffffffffffffffffffffffffffffff1681565b600080600560009054906101000a900473ffffffffffffffffffffffffffffffffffffffff1673ffffffffffffffffffffffffffffffffffffffff166370a08231336040518263ffffffff1660e01b81526004016111999190613047565b60206040518083038186803b1580156111b157600080fd5b505afa1580156111c5573d6000803e3d6000fd5b505050506040513d601f19601f820116820180604052508101906111e99190612b88565b116111f357600080fd5b6000600560009054906101000a900473ffffffffffffffffffffffffffffffffffffffff1673ffffffffffffffffffffffffffffffffffffffff166370a08231336040518263ffffffff1660e01b81526004016112509190613047565b60206040518083038186803b15801561126857600080fd5b505afa15801561127c573d6000803e3d6000fd5b505050506040513d601f19601f820116820180604052508101906112a09190612b88565b9050600081600560009054906101000a900473ffffffffffffffffffffffffffffffffffffffff1673ffffffffffffffffffffffffffffffffffffffff166370a08231306040518263ffffffff1660e01b81526004016113009190613047565b60206040518083038186803b15801561131857600080fd5b505afa15801561132c573d6000803e3d6000fd5b505050506040513d601f19601f820116820180604052508101906113509190612b88565b61135a91906132ac565b90506000823073ffffffffffffffffffffffffffffffffffffffff166370a08231336040518263ffffffff1660e01b81526004016113989190613047565b60206040518083038186803b1580156113b057600080fd5b505afa1580156113c4573d6000803e3d6000fd5b505050506040513d601f19601f820116820180604052508101906113e89190612b88565b6113f291906132ac565b9050600560009054906101000a900473ffffffffffffffffffffffffffffffffffffffff1673ffffffffffffffffffffffffffffffffffffffff166323b872dd3330866040518463ffffffff1660e01b815260040161145393929190613062565b602060405180830381600087803b15801561146d57600080fd5b505af1158015611481573d6000803e3d6000fd5b505050506040513d601f19601f820116820180604052508101906114a59190612b36565b5081600560009054906101000a900473ffffffffffffffffffffffffffffffffffffffff1673ffffffffffffffffffffffffffffffffffffffff166370a08231306040518263ffffffff1660e01b81526004016115029190613047565b60206040518083038186803b15801561151a57600080fd5b505afa15801561152e573d6000803e3d6000fd5b505050506040513d601f19601f820116820180604052508101906115529190612b88565b1461155c57600080fd5b611566338461287b565b803073ffffffffffffffffffffffffffffffffffffffff166370a08231336040518263ffffffff1660e01b81526004016115a09190613047565b60206040518083038186803b1580156115b857600080fd5b505afa1580156115cc573d6000803e3d6000fd5b505050506040513d601f19601f820116820180604052508101906115f09190612b88565b146115fa57600080fd5b6001935050505090565b6000823073ffffffffffffffffffffffffffffffffffffffff166370a08231336040518263ffffffff1660e01b81526004016116409190613047565b60206040518083038186803b15801561165857600080fd5b505afa15801561166c573d6000803e3d6000fd5b505050506040513d601f19601f820116820180604052508101906116909190612b88565b101561169b57600080fd5b600083600560009054906101000a900473ffffffffffffffffffffffffffffffffffffffff1673ffffffffffffffffffffffffffffffffffffffff166370a08231306040518263ffffffff1660e01b81526004016116f99190613047565b60206040518083038186803b15801561171157600080fd5b505afa158015611725573d6000803e3d6000fd5b505050506040513d601f19601f820116820180604052508101906117499190612b88565b6117539190613302565b90506000843073ffffffffffffffffffffffffffffffffffffffff166370a08231336040518263ffffffff1660e01b81526004016117919190613047565b60206040518083038186803b1580156117a957600080fd5b505afa1580156117bd573d6000803e3d6000fd5b505050506040513d601f19601f820116820180604052508101906117e19190612b88565b6117eb9190613302565b90506117f73386612428565b803073ffffffffffffffffffffffffffffffffffffffff166370a08231336040518263ffffffff1660e01b81526004016118319190613047565b60206040518083038186803b15801561184957600080fd5b505afa15801561185d573d6000803e3d6000fd5b505050506040513d601f19601f820116820180604052508101906118819190612b88565b1461188b57600080fd5b600560009054906101000a900473ffffffffffffffffffffffffffffffffffffffff1673ffffffffffffffffffffffffffffffffffffffff1663a9059cbb85876040518363ffffffff1660e01b81526004016118e8929190613099565b602060405180830381600087803b15801561190257600080fd5b505af1158015611916573d6000803e3d6000fd5b505050506040513d601f19601f8201168201806040525081019061193a9190612b36565b50813073ffffffffffffffffffffffffffffffffffffffff166370a08231306040518263ffffffff1660e01b81526004016119759190613047565b60206040518083038186803b15801561198d57600080fd5b505afa1580156119a1573d6000803e3d6000fd5b505050506040513d601f19601f820116820180604052508101906119c59190612b88565b146119cf57600080fd5b60019250505092915050565b600082600560009054906101000a900473ffffffffffffffffffffffffffffffffffffffff1673ffffffffffffffffffffffffffffffffffffffff166370a08231336040518263ffffffff1660e01b8152600401611a399190613047565b60206040518083038186803b158015611a5157600080fd5b505afa158015611a65573d6000803e3d6000fd5b505050506040513d601f19601f82011682018060405250810190611a899190612b88565b1015611a9457600080fd5b600083600560009054906101000a900473ffffffffffffffffffffffffffffffffffffffff1673ffffffffffffffffffffffffffffffffffffffff166370a08231306040518263ffffffff1660e01b8152600401611af29190613047565b60206040518083038186803b158015611b0a57600080fd5b505afa158015611b1e573d6000803e3d6000fd5b505050506040513d601f19601f82011682018060405250810190611b429190612b88565b611b4c91906132ac565b90506000843073ffffffffffffffffffffffffffffffffffffffff166370a08231336040518263ffffffff1660e01b8152600401611b8a9190613047565b60206040518083038186803b158015611ba257600080fd5b505afa158015611bb6573d6000803e3d6000fd5b505050506040513d601f19601f82011682018060405250810190611bda9190612b88565b611be491906132ac565b9050600560009054906101000a900473ffffffffffffffffffffffffffffffffffffffff1673ffffffffffffffffffffffffffffffffffffffff166323b872dd3330886040518463ffffffff1660e01b8152600401611c4593929190613062565b602060405180830381600087803b158015611c5f57600080fd5b505af1158015611c73573d6000803e3d6000fd5b505050506040513d601f19601f82011682018060405250810190611c979190612b36565b5081600560009054906101000a900473ffffffffffffffffffffffffffffffffffffffff1673ffffffffffffffffffffffffffffffffffffffff166370a08231306040518263ffffffff1660e01b8152600401611cf49190613047565b60206040518083038186803b158015611d0c57600080fd5b505afa158015611d20573d6000803e3d6000fd5b505050506040513d601f19601f82011682018060405250810190611d449190612b88565b14611d4e57600080fd5b611d58848661287b565b803073ffffffffffffffffffffffffffffffffffffffff166370a08231336040518263ffffffff1660e01b8152600401611d929190613047565b60206040518083038186803b158015611daa57600080fd5b505afa158015611dbe573d6000803e3d6000fd5b505050506040513d601f19601f82011682018060405250810190611de29190612b88565b14611dec57600080fd5b60019250505092915050565b6000600160008473ffffffffffffffffffffffffffffffffffffffff1673ffffffffffffffffffffffffffffffffffffffff16815260200190815260200160002060008373ffffffffffffffffffffffffffffffffffffffff1673ffffffffffffffffffffffffffffffffffffffff16815260200190815260200160002054905092915050565b6000813073ffffffffffffffffffffffffffffffffffffffff166370a08231336040518263ffffffff1660e01b8152600401611ebb9190613047565b60206040518083038186803b158015611ed357600080fd5b505afa158015611ee7573d6000803e3d6000fd5b505050506040513d601f19601f82011682018060405250810190611f0b9190612b88565b1015611f1657600080fd5b600082600560009054906101000a900473ffffffffffffffffffffffffffffffffffffffff1673ffffffffffffffffffffffffffffffffffffffff166370a08231306040518263ffffffff1660e01b8152600401611f749190613047565b60206040518083038186803b158015611f8c57600080fd5b505afa158015611fa0573d6000803e3d6000fd5b505050506040513d601f19601f82011682018060405250810190611fc49190612b88565b611fce9190613302565b90506000833073ffffffffffffffffffffffffffffffffffffffff166370a08231336040518263ffffffff1660e01b815260040161200c9190613047565b60206040518083038186803b15801561202457600080fd5b505afa158015612038573d6000803e3d6000fd5b505050506040513d601f19601f8201168201806040525081019061205c9190612b88565b6120669190613302565b90506120723385612428565b803073ffffffffffffffffffffffffffffffffffffffff166370a08231336040518263ffffffff1660e01b81526004016120ac9190613047565b60206040518083038186803b1580156120c457600080fd5b505afa1580156120d8573d6000803e3d6000fd5b505050506040513d601f19601f820116820180604052508101906120fc9190612b88565b1461210657600080fd5b600560009054906101000a900473ffffffffffffffffffffffffffffffffffffffff1673ffffffffffffffffffffffffffffffffffffffff1663a9059cbb33866040518363ffffffff1660e01b8152600401612163929190613099565b602060405180830381600087803b15801561217d57600080fd5b505af1158015612191573d6000803e3d6000fd5b505050506040513d601f19601f820116820180604052508101906121b59190612b36565b50813073ffffffffffffffffffffffffffffffffffffffff166370a08231306040518263ffffffff1660e01b81526004016121f09190613047565b60206040518083038186803b15801561220857600080fd5b505afa15801561221c573d6000803e3d6000fd5b505050506040513d601f19601f820116820180604052508101906122409190612b88565b1461224a57600080fd5b600192505050919050565b600033905090565b600073ffffffffffffffffffffffffffffffffffffffff168373ffffffffffffffffffffffffffffffffffffffff1614156122cd576040517f08c379a00000000000000000000000000000000000000000000000000000000081526004016122c4906131fa565b60405180910390fd5b600073ffffffffffffffffffffffffffffffffffffffff168273ffffffffffffffffffffffffffffffffffffffff16141561233d576040517f08c379a00000000000000000000000000000000000000000000000000000000081526004016123349061315a565b60405180910390fd5b80600160008573ffffffffffffffffffffffffffffffffffffffff1673ffffffffffffffffffffffffffffffffffffffff16815260200190815260200160002060008473ffffffffffffffffffffffffffffffffffffffff1673ffffffffffffffffffffffffffffffffffffffff168152602001908152602001600020819055508173ffffffffffffffffffffffffffffffffffffffff168373ffffffffffffffffffffffffffffffffffffffff167f8c5be1e5ebec7d5bd14f71427d1e84f3dd0314c0f7b2291e5b200ac8c7c3b9258360405161241b919061325a565b60405180910390a3505050565b600073ffffffffffffffffffffffffffffffffffffffff168273ffffffffffffffffffffffffffffffffffffffff161415612498576040517f08c379a000000000000000000000000000000000000000000000000000000000815260040161248f906131ba565b60405180910390fd5b6124a4826000836129ed565b60008060008473ffffffffffffffffffffffffffffffffffffffff1673ffffffffffffffffffffffffffffffffffffffff1681526020019081526020016000205490508181101561252a576040517f08c379a00000000000000000000000000000000000000000000000000000000081526004016125219061313a565b60405180910390fd5b81816125369190613302565b6000808573ffffffffffffffffffffffffffffffffffffffff1673ffffffffffffffffffffffffffffffffffffffff16815260200190815260200160002081905550816002600082825461258a9190613302565b92505081905550600073ffffffffffffffffffffffffffffffffffffffff168373ffffffffffffffffffffffffffffffffffffffff167fddf252ad1be2c89b69c2b068fc378daa952ba7f163c4a11628f55a4df523b3ef846040516125ef919061325a565b60405180910390a3505050565b600073ffffffffffffffffffffffffffffffffffffffff168373ffffffffffffffffffffffffffffffffffffffff16141561266c576040517f08c379a0000000000000000000000000000000000000000000000000000000008152600401612663906131da565b60405180910390fd5b600073ffffffffffffffffffffffffffffffffffffffff168273ffffffffffffffffffffffffffffffffffffffff1614156126dc576040517f08c379a00000000000000000000000000000000000000000000000000000000081526004016126d39061311a565b60405180910390fd5b6126e78383836129ed565b60008060008573ffffffffffffffffffffffffffffffffffffffff1673ffffffffffffffffffffffffffffffffffffffff1681526020019081526020016000205490508181101561276d576040517f08c379a00000000000000000000000000000000000000000000000000000000081526004016127649061317a565b60405180910390fd5b81816127799190613302565b6000808673ffffffffffffffffffffffffffffffffffffffff1673ffffffffffffffffffffffffffffffffffffffff16815260200190815260200160002081905550816000808573ffffffffffffffffffffffffffffffffffffffff1673ffffffffffffffffffffffffffffffffffffffff168152602001908152602001600020600082825461280991906132ac565b925050819055508273ffffffffffffffffffffffffffffffffffffffff168473ffffffffffffffffffffffffffffffffffffffff167fddf252ad1be2c89b69c2b068fc378daa952ba7f163c4a11628f55a4df523b3ef8460405161286d919061325a565b60405180910390a350505050565b600073ffffffffffffffffffffffffffffffffffffffff168273ffffffffffffffffffffffffffffffffffffffff1614156128eb576040517f08c379a00000000000000000000000000000000000000000000000000000000081526004016128e29061323a565b60405180910390fd5b6128f7600083836129ed565b806002600082825461290991906132ac565b92505081905550806000808473ffffffffffffffffffffffffffffffffffffffff1673ffffffffffffffffffffffffffffffffffffffff168152602001908152602001600020600082825461295e91906132ac565b925050819055508173ffffffffffffffffffffffffffffffffffffffff16600073ffffffffffffffffffffffffffffffffffffffff167fddf252ad1be2c89b69c2b068fc378daa952ba7f163c4a11628f55a4df523b3ef836040516129c3919061325a565b60405180910390a35050565b60006129e36129dc612255565b84846125fc565b6001905092915050565b505050565b600081359050612a0181613483565b92915050565b600081519050612a168161349a565b92915050565b600081359050612a2b816134b1565b92915050565b600081519050612a40816134b1565b92915050565b600060208284031215612a5857600080fd5b6000612a66848285016129f2565b91505092915050565b60008060408385031215612a8257600080fd5b6000612a90858286016129f2565b9250506020612aa1858286016129f2565b9150509250929050565b600080600060608486031215612ac057600080fd5b6000612ace868287016129f2565b9350506020612adf868287016129f2565b9250506040612af086828701612a1c565b9150509250925092565b60008060408385031215612b0d57600080fd5b6000612b1b858286016129f2565b9250506020612b2c85828601612a1c565b9150509250929050565b600060208284031215612b4857600080fd5b6000612b5684828501612a07565b91505092915050565b600060208284031215612b7157600080fd5b6000612b7f84828501612a1c565b91505092915050565b600060208284031215612b9a57600080fd5b6000612ba884828501612a31565b91505092915050565b60008060408385031215612bc457600080fd5b6000612bd285828601612a1c565b9250506020612be3858286016129f2565b9150509250929050565b612bf681613336565b82525050565b612c0581613348565b82525050565b612c148161338b565b82525050565b6000612c2582613290565b612c2f818561329b565b9350612c3f8185602086016133af565b612c4881613472565b840191505092915050565b6000612c6060238361329b565b91507f45524332303a207472616e7366657220746f20746865207a65726f206164647260008301527f65737300000000000000000000000000000000000000000000000000000000006020830152604082019050919050565b6000612cc660228361329b565b91507f45524332303a206275726e20616d6f756e7420657863656564732062616c616e60008301527f63650000000000000000000000000000000000000000000000000000000000006020830152604082019050919050565b6000612d2c60228361329b565b91507f45524332303a20617070726f766520746f20746865207a65726f20616464726560008301527f73730000000000000000000000000000000000000000000000000000000000006020830152604082019050919050565b6000612d9260268361329b565b91507f45524332303a207472616e7366657220616d6f756e742065786365656473206260008301527f616c616e636500000000000000000000000000000000000000000000000000006020830152604082019050919050565b6000612df860288361329b565b91507f45524332303a207472616e7366657220616d6f756e742065786365656473206160008301527f6c6c6f77616e63650000000000000000000000000000000000000000000000006020830152604082019050919050565b6000612e5e60218361329b565b91507f45524332303a206275726e2066726f6d20746865207a65726f2061646472657360008301527f73000000000000000000000000000000000000000000000000000000000000006020830152604082019050919050565b6000612ec460258361329b565b91507f45524332303a207472616e736665722066726f6d20746865207a65726f20616460008301527f64726573730000000000000000000000000000000000000000000000000000006020830152604082019050919050565b6000612f2a60248361329b565b91507f45524332303a20617070726f76652066726f6d20746865207a65726f2061646460008301527f72657373000000000000000000000000000000000000000000000000000000006020830152604082019050919050565b6000612f9060258361329b565b91507f45524332303a2064656372656173656420616c6c6f77616e63652062656c6f7760008301527f207a65726f0000000000000000000000000000000000000000000000000000006020830152604082019050919050565b6000612ff6601f8361329b565b91507f45524332303a206d696e7420746f20746865207a65726f2061646472657373006000830152602082019050919050565b61303281613374565b82525050565b6130418161337e565b82525050565b600060208201905061305c6000830184612bed565b92915050565b60006060820190506130776000830186612bed565b6130846020830185612bed565b6130916040830184613029565b949350505050565b60006040820190506130ae6000830185612bed565b6130bb6020830184613029565b9392505050565b60006020820190506130d76000830184612bfc565b92915050565b60006020820190506130f26000830184612c0b565b92915050565b600060208201905081810360008301526131128184612c1a565b905092915050565b6000602082019050818103600083015261313381612c53565b9050919050565b6000602082019050818103600083015261315381612cb9565b9050919050565b6000602082019050818103600083015261317381612d1f565b9050919050565b6000602082019050818103600083015261319381612d85565b9050919050565b600060208201905081810360008301526131b381612deb565b9050919050565b600060208201905081810360008301526131d381612e51565b9050919050565b600060208201905081810360008301526131f381612eb7565b9050919050565b6000602082019050818103600083015261321381612f1d565b9050919050565b6000602082019050818103600083015261323381612f83565b9050919050565b6000602082019050818103600083015261325381612fe9565b9050919050565b600060208201905061326f6000830184613029565b92915050565b600060208201905061328a6000830184613038565b92915050565b600081519050919050565b600082825260208201905092915050565b60006132b782613374565b91506132c283613374565b9250827fffffffffffffffffffffffffffffffffffffffffffffffffffffffffffffffff038211156132f7576132f6613414565b5b828201905092915050565b600061330d82613374565b915061331883613374565b92508282101561332b5761332a613414565b5b828203905092915050565b600061334182613354565b9050919050565b60008115159050919050565b600073ffffffffffffffffffffffffffffffffffffffff82169050919050565b6000819050919050565b600060ff82169050919050565b60006133968261339d565b9050919050565b60006133a882613354565b9050919050565b60005b838110156133cd5780820151818401526020810190506133b2565b838111156133dc576000848401525b50505050565b600060028204905060018216806133fa57607f821691505b6020821081141561340e5761340d613443565b5b50919050565b7f4e487b7100000000000000000000000000000000000000000000000000000000600052601160045260246000fd5b7f4e487b7100000000000000000000000000000000000000000000000000000000600052602260045260246000fd5b6000601f19601f8301169050919050565b61348c81613336565b811461349757600080fd5b50565b6134a381613348565b81146134ae57600080fd5b50565b6134ba81613374565b81146134c557600080fd5b5056fea26469706673582212208f795b2e3e8ee1c1f0e31f6902b7ed134c226d12d9f33d30ca4b84e9bb6ecb7c64736f6c63430008000033",
  "immutableReferences": {},
  "source": "// SPDX-License-Identifier: MIT\n// I made this using YFI's woofy as an inspiration. Feel free to reuse or modify the code as you like. Cheers\n\npragma solidity ^0.8.0;\n\nimport \"@openzeppelin/contracts/token/ERC20/ERC20.sol\";\n\n// Contract has not been audited. This is just a project for fun. Use at your own risk!\n\n\n\n/// @title HoneyBees\n/// @author justAGuy\n/// @notice This contract wraps HNY into BEES at a 1:1,000,000 Ratio. You can unwrap your honey at any time by sending bees back to the contract...\n/// @dev Explain to a developer any extra details/\n\n\ncontract HoneyBees is ERC20 {\n\n    ERC20 public honeyAddress = ERC20(0x79AadDB5C58Ef693374d8162Fa67b3bd7d795391); // ADD HONEY ADDRESS\n\n    constructor() ERC20(\"HoneyBees\", \"BEES\") {\n\n      //  Nothing to do here :)\n    }\n    \n    function decimals() public view virtual override returns (uint8) {\n        return 12;\n    }\n\n\n    function attractBees() public returns (bool) {\n        \n        require(honeyAddress.balanceOf(msg.sender) > 0);\n        uint256 amountOfHoney = honeyAddress.balanceOf(msg.sender);      \n        uint256 expectedNewContractHoneyBalance = honeyAddress.balanceOf(address(this)) + amountOfHoney;\n        uint256 expectedNewUserBeeBalance = this.balanceOf(msg.sender) + amountOfHoney;\n        \n        honeyAddress.transferFrom(msg.sender, address(this), amountOfHoney);\n        \n        require(honeyAddress.balanceOf(address(this)) == expectedNewContractHoneyBalance);\n        _mint(msg.sender, amountOfHoney);\n\n        require(this.balanceOf(msg.sender) == expectedNewUserBeeBalance);\n         return true;\n    }\n\n    function attractBees(uint256 amountOfHoney) public returns (bool) {\n        \n        require(honeyAddress.balanceOf(msg.sender) >= amountOfHoney);\n        uint256 expectedNewContractHoneyBalance = honeyAddress.balanceOf(address(this)) + amountOfHoney;\n        uint256 expectedNewUserBeeBalance = this.balanceOf(msg.sender) + amountOfHoney;\n\n        honeyAddress.transferFrom(msg.sender, address(this), amountOfHoney);\n        \n        require(honeyAddress.balanceOf(address(this)) == expectedNewContractHoneyBalance);\n        _mint(msg.sender, amountOfHoney);\n\n        require(this.balanceOf(msg.sender) == expectedNewUserBeeBalance);\n         return true;\n    }\n\n    function attractBees(uint256 amountOfHoney, address sendTo) public returns (bool) {\n        require(honeyAddress.balanceOf(msg.sender) >= amountOfHoney);\n        uint256 expectedNewContractHoneyBalance = honeyAddress.balanceOf(address(this)) + amountOfHoney;\n        uint256 expectedNewUserBeeBalance = this.balanceOf(msg.sender) + amountOfHoney;\n\n        honeyAddress.transferFrom(msg.sender, address(this), amountOfHoney);\n\n        require(honeyAddress.balanceOf(address(this)) == expectedNewContractHoneyBalance);\n         _mint(sendTo, amountOfHoney);\n\n        require(this.balanceOf(msg.sender) == expectedNewUserBeeBalance);\n         return true;\n    }\n    \n    function collectHoney() public returns (bool) {\n        require(this.balanceOf(msg.sender) >= 0);\n         uint256 numberOfBees = this.balanceOf(msg.sender);\n         uint256 expectedNewContractHoneyBalance = honeyAddress.balanceOf(address(this)) - numberOfBees;   \n         uint256 expectedNewUserBeeBalance = this.balanceOf(msg.sender) - numberOfBees;\n\n         _burn(msg.sender, numberOfBees);\n\n        require(this.balanceOf(msg.sender) == expectedNewUserBeeBalance);\n         honeyAddress.transfer(msg.sender, numberOfBees);\n  \n        require(this.balanceOf(address(this)) == expectedNewContractHoneyBalance);\n         return true;\n    }\n\n    function collectHoney(uint256 numberOfBees) public returns (bool) {\n        require(this.balanceOf(msg.sender) >= numberOfBees);\n         uint256 expectedNewContractHoneyBalance = honeyAddress.balanceOf(address(this)) - numberOfBees;\n         uint256 expectedNewUserBeeBalance = this.balanceOf(msg.sender) - numberOfBees;\n         \n         _burn(msg.sender, numberOfBees);\n         \n        require(this.balanceOf(msg.sender) == expectedNewUserBeeBalance); \n         honeyAddress.transfer(msg.sender, numberOfBees);\n        \n        require(this.balanceOf(address(this)) == expectedNewContractHoneyBalance);\n         return true;\n    }\n\n    function collectHoney(uint256 numberOfBees, address sendTo) public returns (bool) {\n        require(this.balanceOf(msg.sender) >= numberOfBees);\n         uint256 expectedNewContractHoneyBalance = honeyAddress.balanceOf(address(this)) - numberOfBees;\n         uint256 expectedNewUserBeeBalance = this.balanceOf(msg.sender) - numberOfBees;\n\n         _burn(msg.sender, numberOfBees);\n\n        require(this.balanceOf(msg.sender) == expectedNewUserBeeBalance);\n         honeyAddress.transfer(sendTo, numberOfBees);\n        \n        require(this.balanceOf(address(this)) == expectedNewContractHoneyBalance);\n         return true;\n    }\n\n\n    function transfer(address recipient, uint256 amount)\n        public\n        virtual\n        override (ERC20)\n        returns (bool)\n    {\n        if (recipient == address(this)) {\n            collectHoney(amount, msg.sender);\n            return true;\n        } else {\n        super.transfer(recipient, amount);        }\n    }\n\n}",
  "sourcePath": "/home/j/Github/BusyBees/busybees/contracts/HoneyBees.sol",
  "compiler": {
    "name": "solc",
    "version": "0.8.0+commit.c7dfd78e.Emscripten.clang"
  },
  "schemaVersion": "3.4.1",
  "updatedAt": "2021-05-31T02:53:49.288Z",
  "networkType": "ethereum",
  "devdoc": {
    "author": "justAGuy",
    "details": "Explain to a developer any extra details/",
    "kind": "dev",
    "methods": {
      "allowance(address,address)": {
        "details": "See {IERC20-allowance}."
      },
      "approve(address,uint256)": {
        "details": "See {IERC20-approve}. Requirements: - `spender` cannot be the zero address."
      },
      "balanceOf(address)": {
        "details": "See {IERC20-balanceOf}."
      },
      "decimals()": {
        "details": "Returns the number of decimals used to get its user representation. For example, if `decimals` equals `2`, a balance of `505` tokens should be displayed to a user as `5,05` (`505 / 10 ** 2`). Tokens usually opt for a value of 18, imitating the relationship between Ether and Wei. This is the value {ERC20} uses, unless this function is overridden; NOTE: This information is only used for _display_ purposes: it in no way affects any of the arithmetic of the contract, including {IERC20-balanceOf} and {IERC20-transfer}."
      },
      "decreaseAllowance(address,uint256)": {
        "details": "Atomically decreases the allowance granted to `spender` by the caller. This is an alternative to {approve} that can be used as a mitigation for problems described in {IERC20-approve}. Emits an {Approval} event indicating the updated allowance. Requirements: - `spender` cannot be the zero address. - `spender` must have allowance for the caller of at least `subtractedValue`."
      },
      "increaseAllowance(address,uint256)": {
        "details": "Atomically increases the allowance granted to `spender` by the caller. This is an alternative to {approve} that can be used as a mitigation for problems described in {IERC20-approve}. Emits an {Approval} event indicating the updated allowance. Requirements: - `spender` cannot be the zero address."
      },
      "name()": {
        "details": "Returns the name of the token."
      },
      "symbol()": {
        "details": "Returns the symbol of the token, usually a shorter version of the name."
      },
      "totalSupply()": {
        "details": "See {IERC20-totalSupply}."
      },
      "transfer(address,uint256)": {
        "details": "See {IERC20-transfer}. Requirements: - `recipient` cannot be the zero address. - the caller must have a balance of at least `amount`."
      },
      "transferFrom(address,address,uint256)": {
        "details": "See {IERC20-transferFrom}. Emits an {Approval} event indicating the updated allowance. This is not required by the EIP. See the note at the beginning of {ERC20}. Requirements: - `sender` and `recipient` cannot be the zero address. - `sender` must have a balance of at least `amount`. - the caller must have allowance for ``sender``'s tokens of at least `amount`."
      }
    },
    "title": "HoneyBees",
    "version": 1
  },
  "userdoc": {
    "kind": "user",
    "methods": {},
    "notice": "This contract wraps HNY into BEES at a 1:1,000,000 Ratio. You can unwrap your honey at any time by sending bees back to the contract...",
    "version": 1
  }
}