{
  "contractName": "HoneyBees",
  "abi": [
    {
      "inputs": [
        {
          "internalType": "address",
          "name": "honeyTokenAddress",
          "type": "address"
        },
        {
          "internalType": "address",
          "name": "DAOAgentAddress",
          "type": "address"
        }
      ],
      "stateMutability": "nonpayable",
      "type": "constructor"
    },
    {
      "anonymous": false,
      "inputs": [
        {
          "indexed": true,
          "internalType": "address",
          "name": "owner",
          "type": "address"
        },
        {
          "indexed": true,
          "internalType": "address",
          "name": "spender",
          "type": "address"
        },
        {
          "indexed": false,
          "internalType": "uint256",
          "name": "value",
          "type": "uint256"
        }
      ],
      "name": "Approval",
      "type": "event"
    },
    {
      "anonymous": false,
      "inputs": [
        {
          "indexed": true,
          "internalType": "bytes32",
          "name": "role",
          "type": "bytes32"
        },
        {
          "indexed": true,
          "internalType": "bytes32",
          "name": "previousAdminRole",
          "type": "bytes32"
        },
        {
          "indexed": true,
          "internalType": "bytes32",
          "name": "newAdminRole",
          "type": "bytes32"
        }
      ],
      "name": "RoleAdminChanged",
      "type": "event"
    },
    {
      "anonymous": false,
      "inputs": [
        {
          "indexed": true,
          "internalType": "bytes32",
          "name": "role",
          "type": "bytes32"
        },
        {
          "indexed": true,
          "internalType": "address",
          "name": "account",
          "type": "address"
        },
        {
          "indexed": true,
          "internalType": "address",
          "name": "sender",
          "type": "address"
        }
      ],
      "name": "RoleGranted",
      "type": "event"
    },
    {
      "anonymous": false,
      "inputs": [
        {
          "indexed": true,
          "internalType": "bytes32",
          "name": "role",
          "type": "bytes32"
        },
        {
          "indexed": true,
          "internalType": "address",
          "name": "account",
          "type": "address"
        },
        {
          "indexed": true,
          "internalType": "address",
          "name": "sender",
          "type": "address"
        }
      ],
      "name": "RoleRevoked",
      "type": "event"
    },
    {
      "anonymous": false,
      "inputs": [
        {
          "indexed": false,
          "internalType": "uint256",
          "name": "id",
          "type": "uint256"
        }
      ],
      "name": "Snapshot",
      "type": "event"
    },
    {
      "anonymous": false,
      "inputs": [
        {
          "indexed": true,
          "internalType": "address",
          "name": "from",
          "type": "address"
        },
        {
          "indexed": true,
          "internalType": "address",
          "name": "to",
          "type": "address"
        },
        {
          "indexed": false,
          "internalType": "uint256",
          "name": "value",
          "type": "uint256"
        }
      ],
      "name": "Transfer",
      "type": "event"
    },
    {
      "inputs": [],
      "name": "DEFAULT_ADMIN_ROLE",
      "outputs": [
        {
          "internalType": "bytes32",
          "name": "",
          "type": "bytes32"
        }
      ],
      "stateMutability": "view",
      "type": "function",
      "constant": true
    },
    {
      "inputs": [],
      "name": "SNAPSHOT_ROLE",
      "outputs": [
        {
          "internalType": "bytes32",
          "name": "",
          "type": "bytes32"
        }
      ],
      "stateMutability": "view",
      "type": "function",
      "constant": true
    },
    {
      "inputs": [
        {
          "internalType": "address",
          "name": "owner",
          "type": "address"
        },
        {
          "internalType": "address",
          "name": "spender",
          "type": "address"
        }
      ],
      "name": "allowance",
      "outputs": [
        {
          "internalType": "uint256",
          "name": "",
          "type": "uint256"
        }
      ],
      "stateMutability": "view",
      "type": "function",
      "constant": true
    },
    {
      "inputs": [
        {
          "internalType": "address",
          "name": "spender",
          "type": "address"
        },
        {
          "internalType": "uint256",
          "name": "amount",
          "type": "uint256"
        }
      ],
      "name": "approve",
      "outputs": [
        {
          "internalType": "bool",
          "name": "",
          "type": "bool"
        }
      ],
      "stateMutability": "nonpayable",
      "type": "function"
    },
    {
      "inputs": [
        {
          "internalType": "address",
          "name": "account",
          "type": "address"
        }
      ],
      "name": "balanceOf",
      "outputs": [
        {
          "internalType": "uint256",
          "name": "",
          "type": "uint256"
        }
      ],
      "stateMutability": "view",
      "type": "function",
      "constant": true
    },
    {
      "inputs": [
        {
          "internalType": "address",
          "name": "account",
          "type": "address"
        },
        {
          "internalType": "uint256",
          "name": "snapshotId",
          "type": "uint256"
        }
      ],
      "name": "balanceOfAt",
      "outputs": [
        {
          "internalType": "uint256",
          "name": "",
          "type": "uint256"
        }
      ],
      "stateMutability": "view",
      "type": "function",
      "constant": true
    },
    {
      "inputs": [
        {
          "internalType": "address",
          "name": "spender",
          "type": "address"
        },
        {
          "internalType": "uint256",
          "name": "subtractedValue",
          "type": "uint256"
        }
      ],
      "name": "decreaseAllowance",
      "outputs": [
        {
          "internalType": "bool",
          "name": "",
          "type": "bool"
        }
      ],
      "stateMutability": "nonpayable",
      "type": "function"
    },
    {
      "inputs": [
        {
          "internalType": "bytes32",
          "name": "role",
          "type": "bytes32"
        }
      ],
      "name": "getRoleAdmin",
      "outputs": [
        {
          "internalType": "bytes32",
          "name": "",
          "type": "bytes32"
        }
      ],
      "stateMutability": "view",
      "type": "function",
      "constant": true
    },
    {
      "inputs": [
        {
          "internalType": "bytes32",
          "name": "role",
          "type": "bytes32"
        },
        {
          "internalType": "address",
          "name": "account",
          "type": "address"
        }
      ],
      "name": "grantRole",
      "outputs": [],
      "stateMutability": "nonpayable",
      "type": "function"
    },
    {
      "inputs": [
        {
          "internalType": "bytes32",
          "name": "role",
          "type": "bytes32"
        },
        {
          "internalType": "address",
          "name": "account",
          "type": "address"
        }
      ],
      "name": "hasRole",
      "outputs": [
        {
          "internalType": "bool",
          "name": "",
          "type": "bool"
        }
      ],
      "stateMutability": "view",
      "type": "function",
      "constant": true
    },
    {
      "inputs": [],
      "name": "honeyAddress",
      "outputs": [
        {
          "internalType": "contract ERC20",
          "name": "",
          "type": "address"
        }
      ],
      "stateMutability": "view",
      "type": "function",
      "constant": true
    },
    {
      "inputs": [],
      "name": "honeyDAOAgentAddress",
      "outputs": [
        {
          "internalType": "address",
          "name": "",
          "type": "address"
        }
      ],
      "stateMutability": "view",
      "type": "function",
      "constant": true
    },
    {
      "inputs": [
        {
          "internalType": "address",
          "name": "spender",
          "type": "address"
        },
        {
          "internalType": "uint256",
          "name": "addedValue",
          "type": "uint256"
        }
      ],
      "name": "increaseAllowance",
      "outputs": [
        {
          "internalType": "bool",
          "name": "",
          "type": "bool"
        }
      ],
      "stateMutability": "nonpayable",
      "type": "function"
    },
    {
      "inputs": [],
      "name": "name",
      "outputs": [
        {
          "internalType": "string",
          "name": "",
          "type": "string"
        }
      ],
      "stateMutability": "view",
      "type": "function",
      "constant": true
    },
    {
      "inputs": [
        {
          "internalType": "bytes32",
          "name": "role",
          "type": "bytes32"
        },
        {
          "internalType": "address",
          "name": "account",
          "type": "address"
        }
      ],
      "name": "renounceRole",
      "outputs": [],
      "stateMutability": "nonpayable",
      "type": "function"
    },
    {
      "inputs": [
        {
          "internalType": "bytes32",
          "name": "role",
          "type": "bytes32"
        },
        {
          "internalType": "address",
          "name": "account",
          "type": "address"
        }
      ],
      "name": "revokeRole",
      "outputs": [],
      "stateMutability": "nonpayable",
      "type": "function"
    },
    {
      "inputs": [
        {
          "internalType": "bytes4",
          "name": "interfaceId",
          "type": "bytes4"
        }
      ],
      "name": "supportsInterface",
      "outputs": [
        {
          "internalType": "bool",
          "name": "",
          "type": "bool"
        }
      ],
      "stateMutability": "view",
      "type": "function",
      "constant": true
    },
    {
      "inputs": [],
      "name": "symbol",
      "outputs": [
        {
          "internalType": "string",
          "name": "",
          "type": "string"
        }
      ],
      "stateMutability": "view",
      "type": "function",
      "constant": true
    },
    {
      "inputs": [],
      "name": "totalSupply",
      "outputs": [
        {
          "internalType": "uint256",
          "name": "",
          "type": "uint256"
        }
      ],
      "stateMutability": "view",
      "type": "function",
      "constant": true
    },
    {
      "inputs": [
        {
          "internalType": "uint256",
          "name": "snapshotId",
          "type": "uint256"
        }
      ],
      "name": "totalSupplyAt",
      "outputs": [
        {
          "internalType": "uint256",
          "name": "",
          "type": "uint256"
        }
      ],
      "stateMutability": "view",
      "type": "function",
      "constant": true
    },
    {
      "inputs": [
        {
          "internalType": "address",
          "name": "sender",
          "type": "address"
        },
        {
          "internalType": "address",
          "name": "recipient",
          "type": "address"
        },
        {
          "internalType": "uint256",
          "name": "amount",
          "type": "uint256"
        }
      ],
      "name": "transferFrom",
      "outputs": [
        {
          "internalType": "bool",
          "name": "",
          "type": "bool"
        }
      ],
      "stateMutability": "nonpayable",
      "type": "function"
    },
    {
      "inputs": [],
      "name": "decimals",
      "outputs": [
        {
          "internalType": "uint8",
          "name": "",
          "type": "uint8"
        }
      ],
      "stateMutability": "view",
      "type": "function",
      "constant": true
    },
    {
      "inputs": [
        {
          "internalType": "uint256",
          "name": "amountOfHoney",
          "type": "uint256"
        }
      ],
      "name": "attractBees",
      "outputs": [
        {
          "internalType": "bool",
          "name": "",
          "type": "bool"
        }
      ],
      "stateMutability": "nonpayable",
      "type": "function"
    },
    {
      "inputs": [],
      "name": "attractBees",
      "outputs": [
        {
          "internalType": "bool",
          "name": "",
          "type": "bool"
        }
      ],
      "stateMutability": "nonpayable",
      "type": "function"
    },
    {
      "inputs": [
        {
          "internalType": "uint256",
          "name": "amountOfHoney",
          "type": "uint256"
        },
        {
          "internalType": "address",
          "name": "sendTo",
          "type": "address"
        }
      ],
      "name": "attractBees",
      "outputs": [
        {
          "internalType": "bool",
          "name": "",
          "type": "bool"
        }
      ],
      "stateMutability": "nonpayable",
      "type": "function"
    },
    {
      "inputs": [],
      "name": "collectHoney",
      "outputs": [
        {
          "internalType": "bool",
          "name": "",
          "type": "bool"
        }
      ],
      "stateMutability": "nonpayable",
      "type": "function"
    },
    {
      "inputs": [
        {
          "internalType": "uint256",
          "name": "numberOfBees",
          "type": "uint256"
        },
        {
          "internalType": "address",
          "name": "sendTo",
          "type": "address"
        }
      ],
      "name": "collectHoney",
      "outputs": [
        {
          "internalType": "bool",
          "name": "",
          "type": "bool"
        }
      ],
      "stateMutability": "nonpayable",
      "type": "function"
    },
    {
      "inputs": [
        {
          "internalType": "uint256",
          "name": "numberOfBees",
          "type": "uint256"
        }
      ],
      "name": "collectHoney",
      "outputs": [
        {
          "internalType": "bool",
          "name": "",
          "type": "bool"
        }
      ],
      "stateMutability": "nonpayable",
      "type": "function"
    },
    {
      "inputs": [
        {
          "internalType": "address",
          "name": "recipient",
          "type": "address"
        },
        {
          "internalType": "uint256",
          "name": "amount",
          "type": "uint256"
        }
      ],
      "name": "transfer",
      "outputs": [
        {
          "internalType": "bool",
          "name": "",
          "type": "bool"
        }
      ],
      "stateMutability": "nonpayable",
      "type": "function"
    },
    {
      "inputs": [],
      "name": "snapshot",
      "outputs": [],
      "stateMutability": "nonpayable",
      "type": "function"
    }
  ],
  "bytecode": "0x60806040523480156200001157600080fd5b506040516200516b3803806200516b83398181016040528101906200003791906200042e565b6040518060400160405280600981526020017f486f6e65794265657300000000000000000000000000000000000000000000008152506040518060400160405280600481526020017f42454553000000000000000000000000000000000000000000000000000000008152508160039080519060200190620000bb92919062000367565b508060049080519060200190620000d492919062000367565b50505081600a60006101000a81548173ffffffffffffffffffffffffffffffffffffffff021916908373ffffffffffffffffffffffffffffffffffffffff16021790555080600b60006101000a81548173ffffffffffffffffffffffffffffffffffffffff021916908373ffffffffffffffffffffffffffffffffffffffff160217905550620001906000801b600b60009054906101000a900473ffffffffffffffffffffffffffffffffffffffff16620001ec60201b60201c565b620001e47f5fdbd35e8da83ee755d5e62a539e5ed7f47126abede0b8b10f9ea43dc6eed07f600b60009054906101000a900473ffffffffffffffffffffffffffffffffffffffff16620001ec60201b60201c565b505062000522565b620001fe82826200020260201b60201c565b5050565b620002148282620002f460201b60201c565b620002f05760016009600084815260200190815260200160002060000160008373ffffffffffffffffffffffffffffffffffffffff1673ffffffffffffffffffffffffffffffffffffffff16815260200190815260200160002060006101000a81548160ff021916908315150217905550620002956200035f60201b60201c565b73ffffffffffffffffffffffffffffffffffffffff168173ffffffffffffffffffffffffffffffffffffffff16837f2f8788117e7eff1d82e926ec794901d17c78024a50270940304540a733656f0d60405160405180910390a45b5050565b60006009600084815260200190815260200160002060000160008373ffffffffffffffffffffffffffffffffffffffff1673ffffffffffffffffffffffffffffffffffffffff16815260200190815260200160002060009054906101000a900460ff16905092915050565b600033905090565b8280546200037590620004a3565b90600052602060002090601f016020900481019282620003995760008555620003e5565b82601f10620003b457805160ff1916838001178555620003e5565b82800160010185558215620003e5579182015b82811115620003e4578251825591602001919060010190620003c7565b5b509050620003f49190620003f8565b5090565b5b8082111562000413576000816000905550600101620003f9565b5090565b600081519050620004288162000508565b92915050565b600080604083850312156200044257600080fd5b6000620004528582860162000417565b9250506020620004658582860162000417565b9150509250929050565b60006200047c8262000483565b9050919050565b600073ffffffffffffffffffffffffffffffffffffffff82169050919050565b60006002820490506001821680620004bc57607f821691505b60208210811415620004d357620004d2620004d9565b5b50919050565b7f4e487b7100000000000000000000000000000000000000000000000000000000600052602260045260246000fd5b62000513816200046f565b81146200051f57600080fd5b50565b614c3980620005326000396000f3fe608060405234801561001057600080fd5b50600436106101da5760003560e01c80638517b37a11610104578063a9059cbb116100a2578063d547741f11610071578063d547741f146105bd578063d7d7da3e146105d9578063dd62ed3e14610609578063f249961414610639576101da565b8063a9059cbb14610521578063b3d8d07914610551578063bd16d6661461056f578063bd9c79381461058d576101da565b80639711715a116100de5780639711715a14610499578063981b24d0146104a3578063a217fddf146104d3578063a457c2d7146104f1576101da565b80638517b37a1461042d57806391d148541461044b57806395d89b411461047b576101da565b80632f2ff15d1161017c578063395093511161014b578063395093511461037f5780634ee2cd7e146103af5780637028e2cd146103df57806370a08231146103fd576101da565b80632f2ff15d146102f9578063313ce5671461031557806335113ac91461033357806336568abe14610363576101da565b80630bd96a4e116101b85780630bd96a4e1461025d57806318160ddd1461027b57806323b872dd14610299578063248a9ca3146102c9576101da565b806301ffc9a7146101df57806306fdde031461020f578063095ea7b31461022d575b600080fd5b6101f960048036038101906101f49190613d12565b610669565b604051610206919061457e565b60405180910390f35b6102176106e3565b60405161022491906145cf565b60405180910390f35b61024760048036038101906102429190613c48565b610775565b604051610254919061457e565b60405180910390f35b610265610793565b604051610272919061457e565b60405180910390f35b610283610bf5565b6040516102909190614811565b60405180910390f35b6102b360048036038101906102ae9190613bf9565b610bff565b6040516102c0919061457e565b60405180910390f35b6102e360048036038101906102de9190613cad565b610d00565b6040516102f09190614599565b60405180910390f35b610313600480360381019061030e9190613cd6565b610d20565b005b61031d610d49565b60405161032a919061482c565b60405180910390f35b61034d60048036038101906103489190613d3b565b610d52565b60405161035a919061457e565b60405180910390f35b61037d60048036038101906103789190613cd6565b61116e565b005b61039960048036038101906103949190613c48565b6111f1565b6040516103a6919061457e565b60405180910390f35b6103c960048036038101906103c49190613c48565b61129d565b6040516103d69190614811565b60405180910390f35b6103e761130d565b6040516103f49190614599565b60405180910390f35b61041760048036038101906104129190613b94565b611331565b6040516104249190614811565b60405180910390f35b610435611379565b6040516104429190614503565b60405180910390f35b61046560048036038101906104609190613cd6565b61139f565b604051610472919061457e565b60405180910390f35b61048361140a565b60405161049091906145cf565b60405180910390f35b6104a161149c565b005b6104bd60048036038101906104b89190613d3b565b6114da565b6040516104ca9190614811565b60405180910390f35b6104db61150b565b6040516104e89190614599565b60405180910390f35b61050b60048036038101906105069190613c48565b611512565b604051610518919061457e565b60405180910390f35b61053b60048036038101906105369190613c48565b611606565b604051610548919061457e565b60405180910390f35b610559611662565b60405161056691906145b4565b60405180910390f35b610577611688565b604051610584919061457e565b60405180910390f35b6105a760048036038101906105a29190613d8d565b611b51565b6040516105b4919061457e565b60405180910390f35b6105d760048036038101906105d29190613cd6565b611f28565b005b6105f360048036038101906105ee9190613d8d565b611f51565b604051610600919061457e565b60405180910390f35b610623600480360381019061061e9190613bbd565b61236e565b6040516106309190614811565b60405180910390f35b610653600480360381019061064e9190613d3b565b6123f5565b604051610660919061457e565b60405180910390f35b60007f7965db0b000000000000000000000000000000000000000000000000000000007bffffffffffffffffffffffffffffffffffffffffffffffffffffffff1916827bffffffffffffffffffffffffffffffffffffffffffffffffffffffff191614806106dc57506106db8261286d565b5b9050919050565b6060600380546106f290614a8f565b80601f016020809104026020016040519081016040528092919081815260200182805461071e90614a8f565b801561076b5780601f106107405761010080835404028352916020019161076b565b820191906000526020600020905b81548152906001019060200180831161074e57829003601f168201915b5050505050905090565b60006107896107826128d7565b84846128df565b6001905092915050565b6000803073ffffffffffffffffffffffffffffffffffffffff166370a08231336040518263ffffffff1660e01b81526004016107cf9190614503565b60206040518083038186803b1580156107e757600080fd5b505afa1580156107fb573d6000803e3d6000fd5b505050506040513d601f19601f8201168201806040525081019061081f9190613d64565b101561082a57600080fd5b60003073ffffffffffffffffffffffffffffffffffffffff166370a08231336040518263ffffffff1660e01b81526004016108659190614503565b60206040518083038186803b15801561087d57600080fd5b505afa158015610891573d6000803e3d6000fd5b505050506040513d601f19601f820116820180604052508101906108b59190613d64565b9050600081600a60009054906101000a900473ffffffffffffffffffffffffffffffffffffffff1673ffffffffffffffffffffffffffffffffffffffff166370a08231306040518263ffffffff1660e01b81526004016109159190614503565b60206040518083038186803b15801561092d57600080fd5b505afa158015610941573d6000803e3d6000fd5b505050506040513d601f19601f820116820180604052508101906109659190613d64565b61096f919061494f565b90506000823073ffffffffffffffffffffffffffffffffffffffff166370a08231336040518263ffffffff1660e01b81526004016109ad9190614503565b60206040518083038186803b1580156109c557600080fd5b505afa1580156109d9573d6000803e3d6000fd5b505050506040513d601f19601f820116820180604052508101906109fd9190613d64565b610a07919061494f565b9050610a133384612aaa565b803073ffffffffffffffffffffffffffffffffffffffff166370a08231336040518263ffffffff1660e01b8152600401610a4d9190614503565b60206040518083038186803b158015610a6557600080fd5b505afa158015610a79573d6000803e3d6000fd5b505050506040513d601f19601f82011682018060405250810190610a9d9190613d64565b14610aa757600080fd5b600a60009054906101000a900473ffffffffffffffffffffffffffffffffffffffff1673ffffffffffffffffffffffffffffffffffffffff1663a9059cbb33856040518363ffffffff1660e01b8152600401610b04929190614555565b602060405180830381600087803b158015610b1e57600080fd5b505af1158015610b32573d6000803e3d6000fd5b505050506040513d601f19601f82011682018060405250810190610b569190613c84565b50813073ffffffffffffffffffffffffffffffffffffffff166370a08231306040518263ffffffff1660e01b8152600401610b919190614503565b60206040518083038186803b158015610ba957600080fd5b505afa158015610bbd573d6000803e3d6000fd5b505050506040513d601f19601f82011682018060405250810190610be19190613d64565b14610beb57600080fd5b6001935050505090565b6000600254905090565b6000610c0c848484612c7e565b6000600160008673ffffffffffffffffffffffffffffffffffffffff1673ffffffffffffffffffffffffffffffffffffffff1681526020019081526020016000206000610c576128d7565b73ffffffffffffffffffffffffffffffffffffffff1673ffffffffffffffffffffffffffffffffffffffff16815260200190815260200160002054905082811015610cd7576040517f08c379a0000000000000000000000000000000000000000000000000000000008152600401610cce906146d1565b60405180910390fd5b610cf485610ce36128d7565b8584610cef919061494f565b6128df565b60019150509392505050565b600060096000838152602001908152602001600020600101549050919050565b610d2982610d00565b610d3a81610d356128d7565b612efd565b610d448383612f9a565b505050565b6000600c905090565b600081600a60009054906101000a900473ffffffffffffffffffffffffffffffffffffffff1673ffffffffffffffffffffffffffffffffffffffff166370a08231336040518263ffffffff1660e01b8152600401610db09190614503565b60206040518083038186803b158015610dc857600080fd5b505afa158015610ddc573d6000803e3d6000fd5b505050506040513d601f19601f82011682018060405250810190610e009190613d64565b1015610e0b57600080fd5b600082600a60009054906101000a900473ffffffffffffffffffffffffffffffffffffffff1673ffffffffffffffffffffffffffffffffffffffff166370a08231306040518263ffffffff1660e01b8152600401610e699190614503565b60206040518083038186803b158015610e8157600080fd5b505afa158015610e95573d6000803e3d6000fd5b505050506040513d601f19601f82011682018060405250810190610eb99190613d64565b610ec3919061486e565b90506000833073ffffffffffffffffffffffffffffffffffffffff166370a08231336040518263ffffffff1660e01b8152600401610f019190614503565b60206040518083038186803b158015610f1957600080fd5b505afa158015610f2d573d6000803e3d6000fd5b505050506040513d601f19601f82011682018060405250810190610f519190613d64565b610f5b919061486e565b9050600a60009054906101000a900473ffffffffffffffffffffffffffffffffffffffff1673ffffffffffffffffffffffffffffffffffffffff166323b872dd3330876040518463ffffffff1660e01b8152600401610fbc9392919061451e565b602060405180830381600087803b158015610fd657600080fd5b505af1158015610fea573d6000803e3d6000fd5b505050506040513d601f19601f8201168201806040525081019061100e9190613c84565b5081600a60009054906101000a900473ffffffffffffffffffffffffffffffffffffffff1673ffffffffffffffffffffffffffffffffffffffff166370a08231306040518263ffffffff1660e01b815260040161106b9190614503565b60206040518083038186803b15801561108357600080fd5b505afa158015611097573d6000803e3d6000fd5b505050506040513d601f19601f820116820180604052508101906110bb9190613d64565b146110c557600080fd5b6110cf338561307b565b803073ffffffffffffffffffffffffffffffffffffffff166370a08231336040518263ffffffff1660e01b81526004016111099190614503565b60206040518083038186803b15801561112157600080fd5b505afa158015611135573d6000803e3d6000fd5b505050506040513d601f19601f820116820180604052508101906111599190613d64565b1461116357600080fd5b600192505050919050565b6111766128d7565b73ffffffffffffffffffffffffffffffffffffffff168173ffffffffffffffffffffffffffffffffffffffff16146111e3576040517f08c379a00000000000000000000000000000000000000000000000000000000081526004016111da906147d1565b60405180910390fd5b6111ed82826131cf565b5050565b60006112936111fe6128d7565b84846001600061120c6128d7565b73ffffffffffffffffffffffffffffffffffffffff1673ffffffffffffffffffffffffffffffffffffffff16815260200190815260200160002060008873ffffffffffffffffffffffffffffffffffffffff1673ffffffffffffffffffffffffffffffffffffffff1681526020019081526020016000205461128e919061486e565b6128df565b6001905092915050565b60008060006112ea84600560008873ffffffffffffffffffffffffffffffffffffffff1673ffffffffffffffffffffffffffffffffffffffff1681526020019081526020016000206132b1565b9150915081611301576112fc85611331565b611303565b805b9250505092915050565b7f5fdbd35e8da83ee755d5e62a539e5ed7f47126abede0b8b10f9ea43dc6eed07f81565b60008060008373ffffffffffffffffffffffffffffffffffffffff1673ffffffffffffffffffffffffffffffffffffffff168152602001908152602001600020549050919050565b600b60009054906101000a900473ffffffffffffffffffffffffffffffffffffffff1681565b60006009600084815260200190815260200160002060000160008373ffffffffffffffffffffffffffffffffffffffff1673ffffffffffffffffffffffffffffffffffffffff16815260200190815260200160002060009054906101000a900460ff16905092915050565b60606004805461141990614a8f565b80601f016020809104026020016040519081016040528092919081815260200182805461144590614a8f565b80156114925780601f1061146757610100808354040283529160200191611492565b820191906000526020600020905b81548152906001019060200180831161147557829003601f168201915b5050505050905090565b6114c67f5fdbd35e8da83ee755d5e62a539e5ed7f47126abede0b8b10f9ea43dc6eed07f3361139f565b6114cf57600080fd5b6114d76133cf565b50565b60008060006114ea8460066132b1565b9150915081611500576114fb610bf5565b611502565b805b92505050919050565b6000801b81565b600080600160006115216128d7565b73ffffffffffffffffffffffffffffffffffffffff1673ffffffffffffffffffffffffffffffffffffffff16815260200190815260200160002060008573ffffffffffffffffffffffffffffffffffffffff1673ffffffffffffffffffffffffffffffffffffffff168152602001908152602001600020549050828110156115de576040517f08c379a00000000000000000000000000000000000000000000000000000000081526004016115d5906147b1565b60405180910390fd5b6115fb6115e96128d7565b8585846115f6919061494f565b6128df565b600191505092915050565b60003073ffffffffffffffffffffffffffffffffffffffff168373ffffffffffffffffffffffffffffffffffffffff161415611650576116468233611b51565b506001905061165c565b61165a8383613427565b505b92915050565b600a60009054906101000a900473ffffffffffffffffffffffffffffffffffffffff1681565b600080600a60009054906101000a900473ffffffffffffffffffffffffffffffffffffffff1673ffffffffffffffffffffffffffffffffffffffff166370a08231336040518263ffffffff1660e01b81526004016116e69190614503565b60206040518083038186803b1580156116fe57600080fd5b505afa158015611712573d6000803e3d6000fd5b505050506040513d601f19601f820116820180604052508101906117369190613d64565b1161174057600080fd5b6000600a60009054906101000a900473ffffffffffffffffffffffffffffffffffffffff1673ffffffffffffffffffffffffffffffffffffffff166370a08231336040518263ffffffff1660e01b815260040161179d9190614503565b60206040518083038186803b1580156117b557600080fd5b505afa1580156117c9573d6000803e3d6000fd5b505050506040513d601f19601f820116820180604052508101906117ed9190613d64565b9050600081600a60009054906101000a900473ffffffffffffffffffffffffffffffffffffffff1673ffffffffffffffffffffffffffffffffffffffff166370a08231306040518263ffffffff1660e01b815260040161184d9190614503565b60206040518083038186803b15801561186557600080fd5b505afa158015611879573d6000803e3d6000fd5b505050506040513d601f19601f8201168201806040525081019061189d9190613d64565b6118a7919061486e565b90506000823073ffffffffffffffffffffffffffffffffffffffff166370a08231336040518263ffffffff1660e01b81526004016118e59190614503565b60206040518083038186803b1580156118fd57600080fd5b505afa158015611911573d6000803e3d6000fd5b505050506040513d601f19601f820116820180604052508101906119359190613d64565b61193f919061486e565b9050600a60009054906101000a900473ffffffffffffffffffffffffffffffffffffffff1673ffffffffffffffffffffffffffffffffffffffff166323b872dd3330866040518463ffffffff1660e01b81526004016119a09392919061451e565b602060405180830381600087803b1580156119ba57600080fd5b505af11580156119ce573d6000803e3d6000fd5b505050506040513d601f19601f820116820180604052508101906119f29190613c84565b5081600a60009054906101000a900473ffffffffffffffffffffffffffffffffffffffff1673ffffffffffffffffffffffffffffffffffffffff166370a08231306040518263ffffffff1660e01b8152600401611a4f9190614503565b60206040518083038186803b158015611a6757600080fd5b505afa158015611a7b573d6000803e3d6000fd5b505050506040513d601f19601f82011682018060405250810190611a9f9190613d64565b14611aa957600080fd5b611ab3338461307b565b803073ffffffffffffffffffffffffffffffffffffffff166370a08231336040518263ffffffff1660e01b8152600401611aed9190614503565b60206040518083038186803b158015611b0557600080fd5b505afa158015611b19573d6000803e3d6000fd5b505050506040513d601f19601f82011682018060405250810190611b3d9190613d64565b14611b4757600080fd5b6001935050505090565b6000823073ffffffffffffffffffffffffffffffffffffffff166370a08231336040518263ffffffff1660e01b8152600401611b8d9190614503565b60206040518083038186803b158015611ba557600080fd5b505afa158015611bb9573d6000803e3d6000fd5b505050506040513d601f19601f82011682018060405250810190611bdd9190613d64565b1015611be857600080fd5b600083600a60009054906101000a900473ffffffffffffffffffffffffffffffffffffffff1673ffffffffffffffffffffffffffffffffffffffff166370a08231306040518263ffffffff1660e01b8152600401611c469190614503565b60206040518083038186803b158015611c5e57600080fd5b505afa158015611c72573d6000803e3d6000fd5b505050506040513d601f19601f82011682018060405250810190611c969190613d64565b611ca0919061494f565b90506000843073ffffffffffffffffffffffffffffffffffffffff166370a08231336040518263ffffffff1660e01b8152600401611cde9190614503565b60206040518083038186803b158015611cf657600080fd5b505afa158015611d0a573d6000803e3d6000fd5b505050506040513d601f19601f82011682018060405250810190611d2e9190613d64565b611d38919061494f565b9050611d443386612aaa565b803073ffffffffffffffffffffffffffffffffffffffff166370a08231336040518263ffffffff1660e01b8152600401611d7e9190614503565b60206040518083038186803b158015611d9657600080fd5b505afa158015611daa573d6000803e3d6000fd5b505050506040513d601f19601f82011682018060405250810190611dce9190613d64565b14611dd857600080fd5b600a60009054906101000a900473ffffffffffffffffffffffffffffffffffffffff1673ffffffffffffffffffffffffffffffffffffffff1663a9059cbb85876040518363ffffffff1660e01b8152600401611e35929190614555565b602060405180830381600087803b158015611e4f57600080fd5b505af1158015611e63573d6000803e3d6000fd5b505050506040513d601f19601f82011682018060405250810190611e879190613c84565b50813073ffffffffffffffffffffffffffffffffffffffff166370a08231306040518263ffffffff1660e01b8152600401611ec29190614503565b60206040518083038186803b158015611eda57600080fd5b505afa158015611eee573d6000803e3d6000fd5b505050506040513d601f19601f82011682018060405250810190611f129190613d64565b14611f1c57600080fd5b60019250505092915050565b611f3182610d00565b611f4281611f3d6128d7565b612efd565b611f4c83836131cf565b505050565b600082600a60009054906101000a900473ffffffffffffffffffffffffffffffffffffffff1673ffffffffffffffffffffffffffffffffffffffff166370a08231336040518263ffffffff1660e01b8152600401611faf9190614503565b60206040518083038186803b158015611fc757600080fd5b505afa158015611fdb573d6000803e3d6000fd5b505050506040513d601f19601f82011682018060405250810190611fff9190613d64565b101561200a57600080fd5b600083600a60009054906101000a900473ffffffffffffffffffffffffffffffffffffffff1673ffffffffffffffffffffffffffffffffffffffff166370a08231306040518263ffffffff1660e01b81526004016120689190614503565b60206040518083038186803b15801561208057600080fd5b505afa158015612094573d6000803e3d6000fd5b505050506040513d601f19601f820116820180604052508101906120b89190613d64565b6120c2919061486e565b90506000843073ffffffffffffffffffffffffffffffffffffffff166370a08231336040518263ffffffff1660e01b81526004016121009190614503565b60206040518083038186803b15801561211857600080fd5b505afa15801561212c573d6000803e3d6000fd5b505050506040513d601f19601f820116820180604052508101906121509190613d64565b61215a919061486e565b9050600a60009054906101000a900473ffffffffffffffffffffffffffffffffffffffff1673ffffffffffffffffffffffffffffffffffffffff166323b872dd3330886040518463ffffffff1660e01b81526004016121bb9392919061451e565b602060405180830381600087803b1580156121d557600080fd5b505af11580156121e9573d6000803e3d6000fd5b505050506040513d601f19601f8201168201806040525081019061220d9190613c84565b5081600a60009054906101000a900473ffffffffffffffffffffffffffffffffffffffff1673ffffffffffffffffffffffffffffffffffffffff166370a08231306040518263ffffffff1660e01b815260040161226a9190614503565b60206040518083038186803b15801561228257600080fd5b505afa158015612296573d6000803e3d6000fd5b505050506040513d601f19601f820116820180604052508101906122ba9190613d64565b146122c457600080fd5b6122ce848661307b565b803073ffffffffffffffffffffffffffffffffffffffff166370a08231336040518263ffffffff1660e01b81526004016123089190614503565b60206040518083038186803b15801561232057600080fd5b505afa158015612334573d6000803e3d6000fd5b505050506040513d601f19601f820116820180604052508101906123589190613d64565b1461236257600080fd5b60019250505092915050565b6000600160008473ffffffffffffffffffffffffffffffffffffffff1673ffffffffffffffffffffffffffffffffffffffff16815260200190815260200160002060008373ffffffffffffffffffffffffffffffffffffffff1673ffffffffffffffffffffffffffffffffffffffff16815260200190815260200160002054905092915050565b6000813073ffffffffffffffffffffffffffffffffffffffff166370a08231336040518263ffffffff1660e01b81526004016124319190614503565b60206040518083038186803b15801561244957600080fd5b505afa15801561245d573d6000803e3d6000fd5b505050506040513d601f19601f820116820180604052508101906124819190613d64565b10156124c2576040517f08c379a00000000000000000000000000000000000000000000000000000000081526004016124b9906146f1565b60405180910390fd5b600082600a60009054906101000a900473ffffffffffffffffffffffffffffffffffffffff1673ffffffffffffffffffffffffffffffffffffffff166370a08231306040518263ffffffff1660e01b81526004016125209190614503565b60206040518083038186803b15801561253857600080fd5b505afa15801561254c573d6000803e3d6000fd5b505050506040513d601f19601f820116820180604052508101906125709190613d64565b61257a919061494f565b90506000833073ffffffffffffffffffffffffffffffffffffffff166370a08231336040518263ffffffff1660e01b81526004016125b89190614503565b60206040518083038186803b1580156125d057600080fd5b505afa1580156125e4573d6000803e3d6000fd5b505050506040513d601f19601f820116820180604052508101906126089190613d64565b612612919061494f565b905061261e3385612aaa565b803073ffffffffffffffffffffffffffffffffffffffff166370a08231336040518263ffffffff1660e01b81526004016126589190614503565b60206040518083038186803b15801561267057600080fd5b505afa158015612684573d6000803e3d6000fd5b505050506040513d601f19601f820116820180604052508101906126a89190613d64565b146126e8576040517f08c379a00000000000000000000000000000000000000000000000000000000081526004016126df90614731565b60405180910390fd5b600a60009054906101000a900473ffffffffffffffffffffffffffffffffffffffff1673ffffffffffffffffffffffffffffffffffffffff1663a9059cbb33866040518363ffffffff1660e01b8152600401612745929190614555565b602060405180830381600087803b15801561275f57600080fd5b505af1158015612773573d6000803e3d6000fd5b505050506040513d601f19601f820116820180604052508101906127979190613c84565b50813073ffffffffffffffffffffffffffffffffffffffff166370a08231306040518263ffffffff1660e01b81526004016127d29190614503565b60206040518083038186803b1580156127ea57600080fd5b505afa1580156127fe573d6000803e3d6000fd5b505050506040513d601f19601f820116820180604052508101906128229190613d64565b14612862576040517f08c379a000000000000000000000000000000000000000000000000000000000815260040161285990614651565b60405180910390fd5b600192505050919050565b60007f01ffc9a7000000000000000000000000000000000000000000000000000000007bffffffffffffffffffffffffffffffffffffffffffffffffffffffff1916827bffffffffffffffffffffffffffffffffffffffffffffffffffffffff1916149050919050565b600033905090565b600073ffffffffffffffffffffffffffffffffffffffff168373ffffffffffffffffffffffffffffffffffffffff16141561294f576040517f08c379a000000000000000000000000000000000000000000000000000000000815260040161294690614771565b60405180910390fd5b600073ffffffffffffffffffffffffffffffffffffffff168273ffffffffffffffffffffffffffffffffffffffff1614156129bf576040517f08c379a00000000000000000000000000000000000000000000000000000000081526004016129b690614691565b60405180910390fd5b80600160008573ffffffffffffffffffffffffffffffffffffffff1673ffffffffffffffffffffffffffffffffffffffff16815260200190815260200160002060008473ffffffffffffffffffffffffffffffffffffffff1673ffffffffffffffffffffffffffffffffffffffff168152602001908152602001600020819055508173ffffffffffffffffffffffffffffffffffffffff168373ffffffffffffffffffffffffffffffffffffffff167f8c5be1e5ebec7d5bd14f71427d1e84f3dd0314c0f7b2291e5b200ac8c7c3b92583604051612a9d9190614811565b60405180910390a3505050565b600073ffffffffffffffffffffffffffffffffffffffff168273ffffffffffffffffffffffffffffffffffffffff161415612b1a576040517f08c379a0000000000000000000000000000000000000000000000000000000008152600401612b1190614711565b60405180910390fd5b612b2682600083613445565b60008060008473ffffffffffffffffffffffffffffffffffffffff1673ffffffffffffffffffffffffffffffffffffffff16815260200190815260200160002054905081811015612bac576040517f08c379a0000000000000000000000000000000000000000000000000000000008152600401612ba390614671565b60405180910390fd5b8181612bb8919061494f565b6000808573ffffffffffffffffffffffffffffffffffffffff1673ffffffffffffffffffffffffffffffffffffffff168152602001908152602001600020819055508160026000828254612c0c919061494f565b92505081905550600073ffffffffffffffffffffffffffffffffffffffff168373ffffffffffffffffffffffffffffffffffffffff167fddf252ad1be2c89b69c2b068fc378daa952ba7f163c4a11628f55a4df523b3ef84604051612c719190614811565b60405180910390a3505050565b600073ffffffffffffffffffffffffffffffffffffffff168373ffffffffffffffffffffffffffffffffffffffff161415612cee576040517f08c379a0000000000000000000000000000000000000000000000000000000008152600401612ce590614751565b60405180910390fd5b600073ffffffffffffffffffffffffffffffffffffffff168273ffffffffffffffffffffffffffffffffffffffff161415612d5e576040517f08c379a0000000000000000000000000000000000000000000000000000000008152600401612d5590614631565b60405180910390fd5b612d69838383613445565b60008060008573ffffffffffffffffffffffffffffffffffffffff1673ffffffffffffffffffffffffffffffffffffffff16815260200190815260200160002054905081811015612def576040517f08c379a0000000000000000000000000000000000000000000000000000000008152600401612de6906146b1565b60405180910390fd5b8181612dfb919061494f565b6000808673ffffffffffffffffffffffffffffffffffffffff1673ffffffffffffffffffffffffffffffffffffffff16815260200190815260200160002081905550816000808573ffffffffffffffffffffffffffffffffffffffff1673ffffffffffffffffffffffffffffffffffffffff1681526020019081526020016000206000828254612e8b919061486e565b925050819055508273ffffffffffffffffffffffffffffffffffffffff168473ffffffffffffffffffffffffffffffffffffffff167fddf252ad1be2c89b69c2b068fc378daa952ba7f163c4a11628f55a4df523b3ef84604051612eef9190614811565b60405180910390a350505050565b612f07828261139f565b612f9657612f2c8173ffffffffffffffffffffffffffffffffffffffff166014613455565b612f3a8360001c6020613455565b604051602001612f4b9291906144c9565b6040516020818303038152906040526040517f08c379a0000000000000000000000000000000000000000000000000000000008152600401612f8d91906145cf565b60405180910390fd5b5050565b612fa4828261139f565b6130775760016009600084815260200190815260200160002060000160008373ffffffffffffffffffffffffffffffffffffffff1673ffffffffffffffffffffffffffffffffffffffff16815260200190815260200160002060006101000a81548160ff02191690831515021790555061301c6128d7565b73ffffffffffffffffffffffffffffffffffffffff168173ffffffffffffffffffffffffffffffffffffffff16837f2f8788117e7eff1d82e926ec794901d17c78024a50270940304540a733656f0d60405160405180910390a45b5050565b600073ffffffffffffffffffffffffffffffffffffffff168273ffffffffffffffffffffffffffffffffffffffff1614156130eb576040517f08c379a00000000000000000000000000000000000000000000000000000000081526004016130e2906147f1565b60405180910390fd5b6130f760008383613445565b8060026000828254613109919061486e565b92505081905550806000808473ffffffffffffffffffffffffffffffffffffffff1673ffffffffffffffffffffffffffffffffffffffff168152602001908152602001600020600082825461315e919061486e565b925050819055508173ffffffffffffffffffffffffffffffffffffffff16600073ffffffffffffffffffffffffffffffffffffffff167fddf252ad1be2c89b69c2b068fc378daa952ba7f163c4a11628f55a4df523b3ef836040516131c39190614811565b60405180910390a35050565b6131d9828261139f565b156132ad5760006009600084815260200190815260200160002060000160008373ffffffffffffffffffffffffffffffffffffffff1673ffffffffffffffffffffffffffffffffffffffff16815260200190815260200160002060006101000a81548160ff0219169083151502179055506132526128d7565b73ffffffffffffffffffffffffffffffffffffffff168173ffffffffffffffffffffffffffffffffffffffff16837ff6391f5c32d9c69d2a47ea670b442974b53935d1edc7fd64eb21e047a839171b60405160405180910390a45b5050565b600080600084116132f7576040517f08c379a00000000000000000000000000000000000000000000000000000000081526004016132ee90614791565b60405180910390fd5b613301600861374f565b841115613343576040517f08c379a000000000000000000000000000000000000000000000000000000000815260040161333a906145f1565b60405180910390fd5b600061335b858560000161375d90919063ffffffff16565b905083600001805490508114156133795760008092509250506133c8565b60018460010182815481106133b7577f4e487b7100000000000000000000000000000000000000000000000000000000600052603260045260246000fd5b906000526020600020015492509250505b9250929050565b60006133db6008613883565b60006133e7600861374f565b90507f8030e83b04d87bef53480e26263266d6ca66863aa8506aca6f2559d18aa1cb67816040516134189190614811565b60405180910390a18091505090565b600061343b6134346128d7565b8484612c7e565b6001905092915050565b613450838383613899565b505050565b60606000600283600261346891906148f5565b613472919061486e565b67ffffffffffffffff8111156134b1577f4e487b7100000000000000000000000000000000000000000000000000000000600052604160045260246000fd5b6040519080825280601f01601f1916602001820160405280156134e35781602001600182028036833780820191505090505b5090507f300000000000000000000000000000000000000000000000000000000000000081600081518110613541577f4e487b7100000000000000000000000000000000000000000000000000000000600052603260045260246000fd5b60200101907effffffffffffffffffffffffffffffffffffffffffffffffffffffffffffff1916908160001a9053507f7800000000000000000000000000000000000000000000000000000000000000816001815181106135cb577f4e487b7100000000000000000000000000000000000000000000000000000000600052603260045260246000fd5b60200101907effffffffffffffffffffffffffffffffffffffffffffffffffffffffffffff1916908160001a9053506000600184600261360b91906148f5565b613615919061486e565b90505b6001811115613701577f3031323334353637383961626364656600000000000000000000000000000000600f86166010811061367d577f4e487b7100000000000000000000000000000000000000000000000000000000600052603260045260246000fd5b1a60f81b8282815181106136ba577f4e487b7100000000000000000000000000000000000000000000000000000000600052603260045260246000fd5b60200101907effffffffffffffffffffffffffffffffffffffffffffffffffffffffffffff1916908160001a905350600485901c9450806136fa90614a65565b9050613618565b5060008414613745576040517f08c379a000000000000000000000000000000000000000000000000000000000815260040161373c90614611565b60405180910390fd5b8091505092915050565b600081600001549050919050565b60008083805490501415613774576000905061387d565b600080848054905090505b808210156137fe5760006137938383613953565b9050848682815481106137cf577f4e487b7100000000000000000000000000000000000000000000000000000000600052603260045260246000fd5b906000526020600020015411156137e8578091506137f8565b6001816137f5919061486e565b92505b5061377f565b60008211801561385c57508385600184613818919061494f565b8154811061384f577f4e487b7100000000000000000000000000000000000000000000000000000000600052603260045260246000fd5b9060005260206000200154145b156138775760018261386e919061494f565b9250505061387d565b81925050505b92915050565b6001816000016000828254019250508190555050565b6138a48383836139ba565b600073ffffffffffffffffffffffffffffffffffffffff168373ffffffffffffffffffffffffffffffffffffffff1614156138ef576138e2826139bf565b6138ea613a12565b61394e565b600073ffffffffffffffffffffffffffffffffffffffff168273ffffffffffffffffffffffffffffffffffffffff16141561393a5761392d836139bf565b613935613a12565b61394d565b613943836139bf565b61394c826139bf565b5b5b505050565b6000600280836139639190614ac1565b6002856139709190614ac1565b61397a919061486e565b61398491906148c4565b60028361399191906148c4565b60028561399e91906148c4565b6139a8919061486e565b6139b2919061486e565b905092915050565b505050565b613a0f600560008373ffffffffffffffffffffffffffffffffffffffff1673ffffffffffffffffffffffffffffffffffffffff168152602001908152602001600020613a0a83611331565b613a26565b50565b613a246006613a1f610bf5565b613a26565b565b6000613a32600861374f565b905080613a4184600001613aa3565b1015613a9e5782600001819080600181540180825580915050600190039060005260206000200160009091909190915055826001018290806001815401808255809150506001900390600052602060002001600090919091909150555b505050565b60008082805490501415613aba5760009050613b11565b8160018380549050613acc919061494f565b81548110613b03577f4e487b7100000000000000000000000000000000000000000000000000000000600052603260045260246000fd5b906000526020600020015490505b919050565b600081359050613b2581614b90565b92915050565b600081519050613b3a81614ba7565b92915050565b600081359050613b4f81614bbe565b92915050565b600081359050613b6481614bd5565b92915050565b600081359050613b7981614bec565b92915050565b600081519050613b8e81614bec565b92915050565b600060208284031215613ba657600080fd5b6000613bb484828501613b16565b91505092915050565b60008060408385031215613bd057600080fd5b6000613bde85828601613b16565b9250506020613bef85828601613b16565b9150509250929050565b600080600060608486031215613c0e57600080fd5b6000613c1c86828701613b16565b9350506020613c2d86828701613b16565b9250506040613c3e86828701613b6a565b9150509250925092565b60008060408385031215613c5b57600080fd5b6000613c6985828601613b16565b9250506020613c7a85828601613b6a565b9150509250929050565b600060208284031215613c9657600080fd5b6000613ca484828501613b2b565b91505092915050565b600060208284031215613cbf57600080fd5b6000613ccd84828501613b40565b91505092915050565b60008060408385031215613ce957600080fd5b6000613cf785828601613b40565b9250506020613d0885828601613b16565b9150509250929050565b600060208284031215613d2457600080fd5b6000613d3284828501613b55565b91505092915050565b600060208284031215613d4d57600080fd5b6000613d5b84828501613b6a565b91505092915050565b600060208284031215613d7657600080fd5b6000613d8484828501613b7f565b91505092915050565b60008060408385031215613da057600080fd5b6000613dae85828601613b6a565b9250506020613dbf85828601613b16565b9150509250929050565b613dd281614983565b82525050565b613de181614995565b82525050565b613df0816149a1565b82525050565b613dff81614a0e565b82525050565b6000613e1082614847565b613e1a8185614852565b9350613e2a818560208601614a32565b613e3381614b7f565b840191505092915050565b6000613e4982614847565b613e538185614863565b9350613e63818560208601614a32565b80840191505092915050565b6000613e7c601d83614852565b91507f4552433230536e617073686f743a206e6f6e6578697374656e742069640000006000830152602082019050919050565b6000613ebc602083614852565b91507f537472696e67733a20686578206c656e67746820696e73756666696369656e746000830152602082019050919050565b6000613efc602383614852565b91507f45524332303a207472616e7366657220746f20746865207a65726f206164647260008301527f65737300000000000000000000000000000000000000000000000000000000006020830152604082019050919050565b6000613f62600883614852565b91507f4572726f722023330000000000000000000000000000000000000000000000006000830152602082019050919050565b6000613fa2602283614852565b91507f45524332303a206275726e20616d6f756e7420657863656564732062616c616e60008301527f63650000000000000000000000000000000000000000000000000000000000006020830152604082019050919050565b6000614008602283614852565b91507f45524332303a20617070726f766520746f20746865207a65726f20616464726560008301527f73730000000000000000000000000000000000000000000000000000000000006020830152604082019050919050565b600061406e602683614852565b91507f45524332303a207472616e7366657220616d6f756e742065786365656473206260008301527f616c616e636500000000000000000000000000000000000000000000000000006020830152604082019050919050565b60006140d4602883614852565b91507f45524332303a207472616e7366657220616d6f756e742065786365656473206160008301527f6c6c6f77616e63650000000000000000000000000000000000000000000000006020830152604082019050919050565b600061413a600883614852565b91507f4572726f722023310000000000000000000000000000000000000000000000006000830152602082019050919050565b600061417a602183614852565b91507f45524332303a206275726e2066726f6d20746865207a65726f2061646472657360008301527f73000000000000000000000000000000000000000000000000000000000000006020830152604082019050919050565b60006141e0600883614852565b91507f4572726f722023320000000000000000000000000000000000000000000000006000830152602082019050919050565b6000614220602583614852565b91507f45524332303a207472616e736665722066726f6d20746865207a65726f20616460008301527f64726573730000000000000000000000000000000000000000000000000000006020830152604082019050919050565b6000614286602483614852565b91507f45524332303a20617070726f76652066726f6d20746865207a65726f2061646460008301527f72657373000000000000000000000000000000000000000000000000000000006020830152604082019050919050565b60006142ec601683614852565b91507f4552433230536e617073686f743a2069642069732030000000000000000000006000830152602082019050919050565b600061432c601783614863565b91507f416363657373436f6e74726f6c3a206163636f756e74200000000000000000006000830152601782019050919050565b600061436c602583614852565b91507f45524332303a2064656372656173656420616c6c6f77616e63652062656c6f7760008301527f207a65726f0000000000000000000000000000000000000000000000000000006020830152604082019050919050565b60006143d2601183614863565b91507f206973206d697373696e6720726f6c65200000000000000000000000000000006000830152601182019050919050565b6000614412602f83614852565b91507f416363657373436f6e74726f6c3a2063616e206f6e6c792072656e6f756e636560008301527f20726f6c657320666f722073656c6600000000000000000000000000000000006020830152604082019050919050565b6000614478601f83614852565b91507f45524332303a206d696e7420746f20746865207a65726f2061646472657373006000830152602082019050919050565b6144b4816149f7565b82525050565b6144c381614a01565b82525050565b60006144d48261431f565b91506144e08285613e3e565b91506144eb826143c5565b91506144f78284613e3e565b91508190509392505050565b60006020820190506145186000830184613dc9565b92915050565b60006060820190506145336000830186613dc9565b6145406020830185613dc9565b61454d60408301846144ab565b949350505050565b600060408201905061456a6000830185613dc9565b61457760208301846144ab565b9392505050565b60006020820190506145936000830184613dd8565b92915050565b60006020820190506145ae6000830184613de7565b92915050565b60006020820190506145c96000830184613df6565b92915050565b600060208201905081810360008301526145e98184613e05565b905092915050565b6000602082019050818103600083015261460a81613e6f565b9050919050565b6000602082019050818103600083015261462a81613eaf565b9050919050565b6000602082019050818103600083015261464a81613eef565b9050919050565b6000602082019050818103600083015261466a81613f55565b9050919050565b6000602082019050818103600083015261468a81613f95565b9050919050565b600060208201905081810360008301526146aa81613ffb565b9050919050565b600060208201905081810360008301526146ca81614061565b9050919050565b600060208201905081810360008301526146ea816140c7565b9050919050565b6000602082019050818103600083015261470a8161412d565b9050919050565b6000602082019050818103600083015261472a8161416d565b9050919050565b6000602082019050818103600083015261474a816141d3565b9050919050565b6000602082019050818103600083015261476a81614213565b9050919050565b6000602082019050818103600083015261478a81614279565b9050919050565b600060208201905081810360008301526147aa816142df565b9050919050565b600060208201905081810360008301526147ca8161435f565b9050919050565b600060208201905081810360008301526147ea81614405565b9050919050565b6000602082019050818103600083015261480a8161446b565b9050919050565b600060208201905061482660008301846144ab565b92915050565b600060208201905061484160008301846144ba565b92915050565b600081519050919050565b600082825260208201905092915050565b600081905092915050565b6000614879826149f7565b9150614884836149f7565b9250827fffffffffffffffffffffffffffffffffffffffffffffffffffffffffffffffff038211156148b9576148b8614af2565b5b828201905092915050565b60006148cf826149f7565b91506148da836149f7565b9250826148ea576148e9614b21565b5b828204905092915050565b6000614900826149f7565b915061490b836149f7565b9250817fffffffffffffffffffffffffffffffffffffffffffffffffffffffffffffffff048311821515161561494457614943614af2565b5b828202905092915050565b600061495a826149f7565b9150614965836149f7565b92508282101561497857614977614af2565b5b828203905092915050565b600061498e826149d7565b9050919050565b60008115159050919050565b6000819050919050565b60007fffffffff0000000000000000000000000000000000000000000000000000000082169050919050565b600073ffffffffffffffffffffffffffffffffffffffff82169050919050565b6000819050919050565b600060ff82169050919050565b6000614a1982614a20565b9050919050565b6000614a2b826149d7565b9050919050565b60005b83811015614a50578082015181840152602081019050614a35565b83811115614a5f576000848401525b50505050565b6000614a70826149f7565b91506000821415614a8457614a83614af2565b5b600182039050919050565b60006002820490506001821680614aa757607f821691505b60208210811415614abb57614aba614b50565b5b50919050565b6000614acc826149f7565b9150614ad7836149f7565b925082614ae757614ae6614b21565b5b828206905092915050565b7f4e487b7100000000000000000000000000000000000000000000000000000000600052601160045260246000fd5b7f4e487b7100000000000000000000000000000000000000000000000000000000600052601260045260246000fd5b7f4e487b7100000000000000000000000000000000000000000000000000000000600052602260045260246000fd5b6000601f19601f8301169050919050565b614b9981614983565b8114614ba457600080fd5b50565b614bb081614995565b8114614bbb57600080fd5b50565b614bc7816149a1565b8114614bd257600080fd5b50565b614bde816149ab565b8114614be957600080fd5b50565b614bf5816149f7565b8114614c0057600080fd5b5056fea2646970667358221220ff87056a40d719d1b8a1266b5854cf1f1e6b98440e16e732579bf99197d5e25b64736f6c63430008000033",
  "immutableReferences": {},
  "source": "// SPDX-License-Identifier: MIT\n/// @title Honey Bees\n/// @author sirwithacomputer\n/// @notice This contract wraps HNY into BEES at a 1:1,000,000 Ratio.\n/// You can unwrap your honey at any time by sending bees back to the contract...\n/// \n\n////////////////////////////////////////////////////////\n///  ONLY SEND BEES TO THE CONTRACT! ///////////////\n///  DO NOT SEND HONEY TO THE CONTRACT!/////////////\n////////////////////////////////////////////////////////\n\n////////////////////////////////////////////////////////////////////\n// Contract has not been audited. This is just a project for fun.\n// Use at your own risk!\n// I made this using YFI's woofy as an inspiration.\n// Feel free to reuse or modify the code as you like.\n// Cheers \n////////////////////////////////////////////////////////////////////\n\n\n\npragma solidity ^0.8.0;\n\nimport \"@openzeppelin/contracts/token/ERC20/ERC20.sol\";\n\n// Adding a snapshotrole so holders can still vote on 1Hive (if so decided by the DAO) \nimport \"@openzeppelin/contracts/token/ERC20/extensions/ERC20Snapshot.sol\";\nimport \"@openzeppelin/contracts/access/AccessControl.sol\";\n\ncontract HoneyBees is ERC20, ERC20Snapshot, AccessControl {\n\n    \n    ERC20 public honeyAddress; \n\n    bytes32 public constant SNAPSHOT_ROLE = keccak256(\"SNAPSHOT_ROLE\");\n    \n    // Set 1Hive Agent address in deployer\n    address public honeyDAOAgentAddress;\n\n    constructor(address honeyTokenAddress, address DAOAgentAddress) ERC20(\"HoneyBees\", \"BEES\") {\n\n      // Giving control (and snapshot ability) to the 1Hive Aragon Agent\n        honeyAddress = ERC20(honeyTokenAddress);\n\n        honeyDAOAgentAddress = DAOAgentAddress;\n\n        _setupRole(DEFAULT_ADMIN_ROLE, honeyDAOAgentAddress);\n        _setupRole(SNAPSHOT_ROLE, honeyDAOAgentAddress);\n    }\n    \n    function decimals() public view virtual override returns (uint8) {\n\n        // This is what give us our HNY/BEES ratio. Right now, I just did 1:1,000,000\n        return 12;\n    }\n\n    function attractBees() public returns (bool) {\n        \n        require(honeyAddress.balanceOf(msg.sender) > 0);\n        uint256 amountOfHoney = honeyAddress.balanceOf(msg.sender);      \n        uint256 expectedNewContractHoneyBalance = honeyAddress.balanceOf(address(this)) + amountOfHoney;\n        uint256 expectedNewUserBeeBalance = this.balanceOf(msg.sender) + amountOfHoney;\n        \n        honeyAddress.transferFrom(msg.sender, address(this), amountOfHoney);\n        \n        require(honeyAddress.balanceOf(address(this)) == expectedNewContractHoneyBalance);\n        _mint(msg.sender, amountOfHoney);\n\n        require(this.balanceOf(msg.sender) == expectedNewUserBeeBalance);\n        return true;\n    }\n\n    function attractBees(uint256 amountOfHoney) public returns (bool) {\n        \n        require(honeyAddress.balanceOf(msg.sender) >= amountOfHoney);\n        uint256 expectedNewContractHoneyBalance = honeyAddress.balanceOf(address(this)) + amountOfHoney;\n        uint256 expectedNewUserBeeBalance = this.balanceOf(msg.sender) + amountOfHoney;\n\n        honeyAddress.transferFrom(msg.sender, address(this), amountOfHoney);\n        \n        require(honeyAddress.balanceOf(address(this)) == expectedNewContractHoneyBalance);\n        _mint(msg.sender, amountOfHoney);\n\n        require(this.balanceOf(msg.sender) == expectedNewUserBeeBalance);\n        return true;\n    }\n\n    function attractBees(uint256 amountOfHoney, address sendTo) public returns (bool) {\n\n        require(honeyAddress.balanceOf(msg.sender) >= amountOfHoney);\n        uint256 expectedNewContractHoneyBalance = honeyAddress.balanceOf(address(this)) + amountOfHoney;\n        uint256 expectedNewUserBeeBalance = this.balanceOf(msg.sender) + amountOfHoney;\n\n        honeyAddress.transferFrom(msg.sender, address(this), amountOfHoney);\n\n        require(honeyAddress.balanceOf(address(this)) == expectedNewContractHoneyBalance);\n         _mint(sendTo, amountOfHoney);\n\n        require(this.balanceOf(msg.sender) == expectedNewUserBeeBalance);\n        return true;\n    }\n    \n    function collectHoney() public returns (bool) {\n\n        require(this.balanceOf(msg.sender) >= 0);\n        uint256 numberOfBees = this.balanceOf(msg.sender);\n        uint256 expectedNewContractHoneyBalance = honeyAddress.balanceOf(address(this)) - numberOfBees;   \n        uint256 expectedNewUserBeeBalance = this.balanceOf(msg.sender) - numberOfBees;\n\n        _burn(msg.sender, numberOfBees);\n\n        require(this.balanceOf(msg.sender) == expectedNewUserBeeBalance);\n        honeyAddress.transfer(msg.sender, numberOfBees);\n  \n        require(this.balanceOf(address(this)) == expectedNewContractHoneyBalance);\n        return true;\n    }\n\n    function collectHoney(uint256 numberOfBees) public returns (bool) {\n\n        require(this.balanceOf(msg.sender) >= numberOfBees, \"Error #1\");\n        uint256 expectedNewContractHoneyBalance = honeyAddress.balanceOf(address(this)) - numberOfBees;\n        uint256 expectedNewUserBeeBalance = this.balanceOf(msg.sender) - numberOfBees;\n         \n        _burn(msg.sender, numberOfBees);\n         \n        require(this.balanceOf(msg.sender) == expectedNewUserBeeBalance, \"Error #2\"); \n        honeyAddress.transfer(msg.sender, numberOfBees);\n        \n        require(this.balanceOf(address(this)) == expectedNewContractHoneyBalance, \"Error #3\");\n        return true;\n    }\n\n    function collectHoney(uint256 numberOfBees, address sendTo) public returns (bool) {\n\n        require(this.balanceOf(msg.sender) >= numberOfBees);\n         uint256 expectedNewContractHoneyBalance = honeyAddress.balanceOf(address(this)) - numberOfBees;\n         uint256 expectedNewUserBeeBalance = this.balanceOf(msg.sender) - numberOfBees;\n\n         _burn(msg.sender, numberOfBees);\n\n        require(this.balanceOf(msg.sender) == expectedNewUserBeeBalance);\n         honeyAddress.transfer(sendTo, numberOfBees);\n        \n        require(this.balanceOf(address(this)) == expectedNewContractHoneyBalance);\n         return true;\n    }\n\n\n    function transfer(address recipient, uint256 amount) public virtual override (ERC20)\n        returns (bool)\n    {\n        if (recipient == address(this)) {\n            collectHoney(amount, msg.sender);\n            return true;\n        } else {\n        super.transfer(recipient, amount);        }\n    }\n\n    function snapshot() public {\n        require(hasRole(SNAPSHOT_ROLE, msg.sender));\n        _snapshot();\n    }\n\n    function _beforeTokenTransfer(address from, address to, uint256 amount) internal\n        override(ERC20, ERC20Snapshot)\n    {\n        super._beforeTokenTransfer(from, to, amount);\n    }\n\n}",
  "sourcePath": "/home/j/Github Projects/HoneyBees/contracts/HoneyBees.sol",
  "compiler": {
    "name": "solc",
    "version": "0.8.0+commit.c7dfd78e.Emscripten.clang"
  },
  "schemaVersion": "3.4.1",
  "updatedAt": "2021-06-05T01:47:39.115Z",
  "networkType": "ethereum",
  "devdoc": {
    "kind": "dev",
    "methods": {
      "allowance(address,address)": {
        "details": "See {IERC20-allowance}."
      },
      "approve(address,uint256)": {
        "details": "See {IERC20-approve}. Requirements: - `spender` cannot be the zero address."
      },
      "balanceOf(address)": {
        "details": "See {IERC20-balanceOf}."
      },
      "balanceOfAt(address,uint256)": {
        "details": "Retrieves the balance of `account` at the time `snapshotId` was created."
      },
      "decimals()": {
        "details": "Returns the number of decimals used to get its user representation. For example, if `decimals` equals `2`, a balance of `505` tokens should be displayed to a user as `5,05` (`505 / 10 ** 2`). Tokens usually opt for a value of 18, imitating the relationship between Ether and Wei. This is the value {ERC20} uses, unless this function is overridden; NOTE: This information is only used for _display_ purposes: it in no way affects any of the arithmetic of the contract, including {IERC20-balanceOf} and {IERC20-transfer}."
      },
      "decreaseAllowance(address,uint256)": {
        "details": "Atomically decreases the allowance granted to `spender` by the caller. This is an alternative to {approve} that can be used as a mitigation for problems described in {IERC20-approve}. Emits an {Approval} event indicating the updated allowance. Requirements: - `spender` cannot be the zero address. - `spender` must have allowance for the caller of at least `subtractedValue`."
      },
      "getRoleAdmin(bytes32)": {
        "details": "Returns the admin role that controls `role`. See {grantRole} and {revokeRole}. To change a role's admin, use {_setRoleAdmin}."
      },
      "grantRole(bytes32,address)": {
        "details": "Grants `role` to `account`. If `account` had not been already granted `role`, emits a {RoleGranted} event. Requirements: - the caller must have ``role``'s admin role."
      },
      "hasRole(bytes32,address)": {
        "details": "Returns `true` if `account` has been granted `role`."
      },
      "increaseAllowance(address,uint256)": {
        "details": "Atomically increases the allowance granted to `spender` by the caller. This is an alternative to {approve} that can be used as a mitigation for problems described in {IERC20-approve}. Emits an {Approval} event indicating the updated allowance. Requirements: - `spender` cannot be the zero address."
      },
      "name()": {
        "details": "Returns the name of the token."
      },
      "renounceRole(bytes32,address)": {
        "details": "Revokes `role` from the calling account. Roles are often managed via {grantRole} and {revokeRole}: this function's purpose is to provide a mechanism for accounts to lose their privileges if they are compromised (such as when a trusted device is misplaced). If the calling account had been granted `role`, emits a {RoleRevoked} event. Requirements: - the caller must be `account`."
      },
      "revokeRole(bytes32,address)": {
        "details": "Revokes `role` from `account`. If `account` had been granted `role`, emits a {RoleRevoked} event. Requirements: - the caller must have ``role``'s admin role."
      },
      "supportsInterface(bytes4)": {
        "details": "See {IERC165-supportsInterface}."
      },
      "symbol()": {
        "details": "Returns the symbol of the token, usually a shorter version of the name."
      },
      "totalSupply()": {
        "details": "See {IERC20-totalSupply}."
      },
      "totalSupplyAt(uint256)": {
        "details": "Retrieves the total supply at the time `snapshotId` was created."
      },
      "transfer(address,uint256)": {
        "details": "See {IERC20-transfer}. Requirements: - `recipient` cannot be the zero address. - the caller must have a balance of at least `amount`."
      },
      "transferFrom(address,address,uint256)": {
        "details": "See {IERC20-transferFrom}. Emits an {Approval} event indicating the updated allowance. This is not required by the EIP. See the note at the beginning of {ERC20}. Requirements: - `sender` and `recipient` cannot be the zero address. - `sender` must have a balance of at least `amount`. - the caller must have allowance for ``sender``'s tokens of at least `amount`."
      }
    },
    "version": 1
  },
  "userdoc": {
    "kind": "user",
    "methods": {},
    "version": 1
  }
}